:100000000C9435000C945D000C945D000C945D0024
:100010000C945D000C945D000C945D000C945D00EC
:100020000C945D000C945D000C945D000C945D00DC
:100030000C945D000C945D000C945D000C945D00CC
:100040000C9422040C945D000C944C020C94260237
:100050000C945D000C945D000C945D000C945D00AC
:100060000C946C040C945D00080E11241FBECFEF9D
:10007000D8E0DEBFCDBF23E0A8EEB1E001C01D9205
:10008000A73DB207E1F711E0A0E0B1E0E4EAF1E258
:1000900002C005900D92A83EB107D9F710E0C5E364
:1000A000D0E004C02197FE010E94C510C433D107DF
:1000B000C9F70E948F090C94D0100C940000089589
:1000C000FC01538D448D252F30E0842F90E0821B5E
:1000D000930B541710F0CF96089501970895FC01E3
:1000E000918D828D981761F0828DDF01A80FB11D6F
:1000F0005D968C91928D9F5F9F73928F90E0089593
:100100008FEF9FEF0895FC01918D828D981731F04C
:10011000828DE80FF11D858D90E008958FEF9FEFA0
:100120000895FC01918D228D892F90E0805C9F4F76
:10013000821B91098F739927089583ED92E00E94A5
:10014000910021E0892B09F420E0822F0895FC0121
:10015000848DDF01A80FB11DA35ABF4F2C91848D50
:1001600090E001968F739927848FA689B7892C9385
:10017000A089B1898C91837080648C93938D848DD8
:10018000981306C00288F389E02D80818F7D8083DB
:100190000895EF92FF920F931F93CF93DF93EC019B
:1001A00081E0888F9B8D8C8D981305C0E889F98933
:1001B000808185FD26C0F62E0B8D10E00F5F1F4F4E
:1001C0000F731127E02E8C8DE8120CC00FB607FCC0
:1001D000FACFE889F989808185FFF5CFCE010E94A9
:1001E000A700F1CF8B8DFE01E80FF11DE35AFF4F01
:1001F000F0829FB7F8940B8FEA89FB898081806237
:100200000AC09FB7F894EE89FF896083E889F9896D
:1002100080818370806480839FBF81E090E0DF9164
:10022000CF911F910F91FF90EF900895CF93DF939F
:10023000EC01888D8823C9F0EA89FB89808185FDDE
:1002400005C0A889B9898C9186FD0FC00FB607FC3F
:10025000F5CF808185FFF2CFA889B9898C9185FF80
:10026000EDCFCE010E94A700E7CFDF91CF91089597
:1002700080E090E0892B29F00E949D0081110C9470
:10028000000008953FB7F894809152029091530274
:10029000A0915402B091550226B5A89B05C02F3FEE
:1002A00019F00196A11DB11D3FBFBA2FA92F982F9C
:1002B0008827820F911DA11DB11DBC01CD0142E017
:1002C000660F771F881F991F4A95D1F7089585ED0E
:1002D0008093BC008091BC0084FDFCCF10929602FC
:1002E000089540912A02262F30E0240F311D21323B
:1002F0003105DCF4209196022430C9F4FC0180E041
:1003000090E0861758F430912A022191DC01A65F13
:10031000BD4FA30FB11D2C930196F3CF80912A02FC
:10032000680F60932A0280E0089581E0089582E0DA
:100330000895E091090280910802E81730F4F0E096
:10034000E851FE4F808190E008958FEF9FEF089570
:100350009091090280910802981750F4E92FF0E07B
:10036000E851FE4F208130E09F5F9093090202C068
:100370002FEF3FEFC90108958091080290E020918E
:100380000902821B91090895CF92DF92EF92FF92AA
:100390000F931F93CF93DF937C01CB018A012091B0
:1003A0009702222389F0EB016B01C40ED51ECC15F8
:1003B000DD0569F06991D701ED91FC910190F08123
:1003C000E02DC7010995F3CF642F0E947101C80188
:1003D000DF91CF911F910F91FF90EF90DF90CF9021
:1003E0000895CF93DF931F92CDB7DEB76983209135
:1003F00097022223D1F02091BA02203240F021E06E
:1004000030E0FC013383228380E090E015C08091CE
:100410009802E82FF0E0E756FD4F998190838F5FB7
:10042000809398028093BA0205C061E0CE010196E4
:100430000E94710181E090E00F90DF91CF910895CB
:10044000089580E090E008950E94CB101F920F92D3
:100450000FB60F9211242F933F934F935F936F9397
:100460007F938F939F93AF93BF93EF93FF9383ED0E
:1004700092E00E94A700FF91EF91BF91AF919F91F1
:100480008F917F916F915F914F913F912F910F903D
:100490000FBE0F901F9018951F920F920FB60F92DC
:1004A00011242F938F939F93EF93FF93E091E30297
:1004B000F091E4028081E091E902F091EA0282FD8C
:1004C00012C090818091EC028F5F8F732091ED02BA
:1004D000821751F0E091EC02F0E0ED52FD4F958F64
:1004E0008093EC0201C08081FF91EF919F918F91E9
:1004F0002F910F900FBE0F901F9018958F929F9283
:10050000AF92BF92CF92DF92EF92FF926B017C018C
:100510000E9442014B015C01C114D104E104F104C9
:10052000F1F00E944201DC01CB0188199909AA0966
:10053000BB09883E9340A105B10570F321E0C21AC2
:10054000D108E108F10888EE880E83E0981EA11C0E
:10055000B11CC114D104E104F10419F7DDCFFF90FF
:10056000EF90DF90CF90BF90AF909F908F900895C5
:100570002FB7F89460914E0270914F028091500213
:10058000909151022FBF08952F923F924F925F9208
:100590006F927F928F929F92AF92BF92CF92DF9293
:1005A000EF92FF920F931F93CF93DF93CDB7DEB7F8
:1005B00028970FB6F894DEBF0FBECDBFC82E962E7B
:1005C0004887190178010E94B8022B013C018C2C4C
:1005D000880CD12C10E001E02885A22EB12CC70197
:1005E000A0E0B0E08B839C83AD83BE839885D91651
:1005F00008F089C000939702C092B9021092980245
:100600001092BA02692D88EB93E00E94F10181E01B
:100610000E94E80500939702C092B90210929802D6
:100620001092BA02809196028111FCCFC5018D19FA
:1006300091098132910514F080E290E08F8381323C
:1006400010F0A0E2AF830093960200939502BFEFF3
:10065000B0939402109293028F8181508093920202
:1006600000937102809171028829809371028091B8
:100670007002813071F41092700280917102809347
:10068000BB008091BC0083FDF8CFE5ECE093BC009B
:1006900003C0F5EEF093BC00809196028130E1F347
:1006A000809193022F81821718F4309193023F8337
:1006B000E2E7F2E0A8EEB1E080E04F81841721F09C
:1006C00091919D938F5FF9CF109209024093080298
:1006D000809109025F81581709F444C0E114F104C4
:1006E00089F10E94B802DC01CB0184199509A609A1
:1006F000B7092B813C814D815E8182179307A40746
:10070000B50700F12FC0E114F10491F10E94B80285
:10071000DC01CB0184199509A609B7096701E12C11
:10072000F12C8C159D05AE05BF0510F14885242FD1
:1007300030E0812F012E000C990B82179307C4F42F
:100740001FEF16C0C101810F911D17FD9A959A8365
:10075000898388EB93E00E94A801A981BA818C93D8
:100760001F5FB6CF8885813208F080E2D80E3ECF79
:10077000812F28960FB6F894DEBF0FBECDBFDF9154
:10078000CF911F910F91FF90EF90DF90CF90BF908E
:10079000AF909F908F907F906F905F904F903F9021
:1007A0002F900895BF92CF92DF92EF92FF920F9316
:1007B0001F93CF93DF9300D0CDB7DEB7F82EE62E90
:1007C000C42EB22ED02E08EE13E09E012E5F3F4FB6
:1007D00041E00E94C402882341F14C2D50E04B19A6
:1007E00051094F5F5F4F81E090E002C0880F991F71
:1007F000BA94E2F70197042E01C0880F0A94EAF731
:100800002D2D01C0220F4A95EAF7382F30959A8195
:1008100093238223892B8A838983AE014F5F5F4FA5
:100820006E2D8F2D0E94440601C080E00F900F9026
:10083000DF91CF911F910F91FF90EF90DF90CF90BC
:10084000BF9008951F920F920FB60F9211242F930D
:100850003F938F939F93AF93BF9380914E0290915C
:100860004F02A0915002B091510230914D0223E00D
:10087000230F2D3720F40196A11DB11D05C026E8D8
:10088000230F0296A11DB11D20934D0280934E02AD
:1008900090934F02A0935002B09351028091520264
:1008A00090915302A0915402B09155020196A11D5E
:1008B000B11D8093520290935302A0935402B093BF
:1008C0005502BF91AF919F918F913F912F910F90C2
:1008D0000FBE0F901F9018951F920F920FB60F9298
:1008E00011242F933F934F935F936F937F938F9335
:1008F0009F93AF93BF93EF93FF938091B900887F4D
:10090000803609F49CC068F5883209F45BC090F425
:10091000803109F454C038F4882309F4F2C08830D7
:1009200009F44DC0F2C0883109F44CC0803209F49A
:100930005DC0EBC0803409F468C048F4803309F42A
:1009400055C0883309F0E1C080939402D4C080354B
:1009500009F44FC0883509F45DC0883409F0D5C06A
:10096000D2C0883909F4C3C0A8F4883709F467C035
:1009700038F4883609F463C0803709F460C0C5C014
:10098000883809F4B4C0803909F45FC0803809F0B0
:10099000BCC05BC0803B09F484C038F4803A09F4E1
:1009A00066C0883A09F47DC0B0C0803C09F4A3C099
:1009B000883C09F4A0C0883B09F486C0A6C0809199
:1009C000710210C09091930280919202981770F575
:1009D000E091930281E08E0F80939302F0E0EE5855
:1009E000FD4F80818093BB0085EC82C08093940290
:1009F0008AC0E091930281E08E0F809393028091F0
:100A0000BB00F0E0EE58FD4F8083909193028091FF
:100A100092026AC0E091930281E08E0F809393026C
:100A20008091BB00F0E0EE58FD4F808380919502ED
:100A3000811169C081E08093700284EA5DC083E027
:100A40008093960210924C02CFCF80914C0280325C
:100A500008F04DC0E0914C0281E08E0F80934C0273
:100A60008091BB00F0E0E45DFD4F8083BDCF85EC5D
:100A70008093BC001092960280914C02803230F438
:100A8000E0914C02F0E0E45DFD4F108260914C0279
:100A900070E08CE292E0E0E0F0E0099510924C0208
:100AA00034C084E08093960210922B0210922A02A6
:100AB000E0E0F0E0099580912A02811105C081E013
:100AC00080932A0210920A02E0912B0281E08E0F9D
:100AD00080932B02F0E0E65FFD4F80818093BB00A6
:100AE00090912B0280912A02981708F47DCF85E817
:100AF0008093BC000AC085EC8093BC0010929602E3
:100B000004C0109294020E946701FF91EF91BF917F
:100B1000AF919F918F917F916F915F914F913F9195
:100B20002F910F900FBE0F901F901895CF92DF92CC
:100B3000EF92FF920F931F93CF93DF936C017A0193
:100B40008B01C0E0D0E0CE15DF0581F0D8016D91BA
:100B50008D01D601ED91FC910190F081E02DC6014F
:100B60000995892B11F02196EECF7E01C701DF9107
:100B7000CF911F910F91FF90EF90DF90CF9008954C
:100B8000E3EDF2E0A089B18982E08C93A485B5857C
:100B90001C92A685B7858FEC8C93108EA489B5899D
:100BA00086E08C93A289B3898C9180618C93A28911
:100BB000B3898C9188608C93A289B3898C91806869
:100BC0008C930288F389E02D80818F7D8083089546
:100BD000282F3091BA02313208F04AC08091960233
:100BE0008111FCCF9091B90242E04093960220938C
:100BF00095022FEF20939402109293023093920269
:100C0000E9E9F2E0A2E7B2E020E0321721F04191F9
:100C10004D932F5FFACF1092710220917102990FBC
:100C2000922B9093710290917002913061F4109226
:100C30007002909171029093BB009091BC0093FD63
:100C4000F8CF95EC01C095EE9093BC009091960280
:100C50009230E1F3909194029F3F79F08091940259
:100C6000803241F080919402803331F084E005C0FD
:100C700081E003C082E001C083E0109298021092EC
:100C8000BA02109297020895CF93DF93EA0191E0A0
:100C9000909397028093B902109298021092BA0230
:100CA00088EB93E00E94F101688188EB93E00E9459
:100CB000F10181E00E94E80591E0811190E0892F27
:100CC000DF91CF9108956115710579F0FB010190D5
:100CD0000020E9F73197AF01461B570BDC01ED917E
:100CE000FC910280F381E02D099480E090E008956A
:100CF0008F929F92AF92BF92EF92FF920F931F93AA
:100D0000CF93DF93CDB7DEB7A1970FB6F894DEBFD0
:100D10000FBECDBF7C01FA01CB0119A2223008F42D
:100D20002AE08E010F5D1F4F822E912CA12CB12C39
:100D3000BF01A50194010E94840FF901CA0101506D
:100D400011096A3014F4605D01C0695CD8016C93CC
:100D5000232B242B252B61F7B801C7010E946306C2
:100D6000A1960FB6F894DEBF0FBECDBFDF91CF9135
:100D70001F910F91FF90EF90BF90AF909F908F9039
:100D800008950F931F93CF93DF93EC010E946306A6
:100D90008C0163E371E0CE010E946306800F911F16
:100DA000DF91CF911F910F9108952F923F924F9213
:100DB0005F926F927F928F929F92AF92BF92CF92EB
:100DC000DF92EF92FF920F931F93CF93DF93CDB7F4
:100DD000DEB7C65CD4400FB6F894DEBF0FBECDBF01
:100DE000CF5DDC4F8881C152D340CD54DB4F888327
:100DF000C35BD440CE5DDC4FE880C252D340CD5DB2
:100E0000DC4FF880C352D340CC5DDC4F0881C45224
:100E1000D340CF56DE4F9881C159D140CC54DB4FDF
:100E20009883C45BD440CE56DE4F1881C259D1405E
:100E3000CD56DE4F8881C359D140CB54DB4F8883D8
:100E4000C55BD440CC56DE4F9881C459D140CA54BA
:100E5000DB4F9883C65BD4408981C954DB4F8883BC
:100E6000C75BD4409A81C854DB4F9883C85BD44099
:100E70008B81C754DB4F8883C95BD4409C81C654A7
:100E8000DB4F9883CA5BD440C954DB4F8881C75B72
:100E9000D440CD53DB4F8883C35CD440C854DB4F70
:100EA0009881C85BD440CC53DB4F9883C45CD4405A
:100EB000C754DB4F8881C95BD440CB53DB4F888359
:100EC000C55CD440C654DB4F9881CA5BD440CA533A
:100ED000DB4F9883C65CD440CC54DB4F8881C45B25
:100EE000D440C154DB4F8883CF5BD440C054DB4F28
:100EF0001883C05CD440CB54DB4F9881C55BD44091
:100F0000CF53DB4F9883C15CD440CA54DB4F8881F8
:100F1000C65BD440CE53DB4F8883C25CD440CD54F3
:100F2000DB4F9881C35BD440C554DB4F9883CB5BC8
:100F3000D440C454DB4FE882CC5BD440C354DB4F75
:100F4000F882CD5BD440C254DB4F0883CE5BD440E3
:100F5000CF54DB4F19821882C15BD4402090CF025E
:100F60003090D0024090D1025090D2026090CB02DB
:100F70007090CC028090CD029090CE02A090C702DB
:100F8000B090C802C090C902D090CA0262E370E07B
:100F900080E090E00E947E02CF54DB4F88819981EF
:100FA000C15BD4408336910539F465EC71E083ED83
:100FB00092E00E94C106FAC067ED71E083ED92E015
:100FC0000E94C106CD54DB4F2881C35BD4403E2D27
:100FD0004F2D502FB101C2010E94BB10181644F4CE
:100FE000CD54DB4F2882C35BD440E32CF42C052D79
:100FF000CC54DB4F2881C45BD440312FCB54DB4F22
:101000004881C55BD440CA54DB4F5881C65BD4408D
:10101000B301C4010E94BB10181684F4CC54DB4FFA
:101020006882C45BD440172DCB54DB4F8882C55BEC
:10103000D440CA54DB4F9882C65BD440C954DB4FBE
:101040002881C75BD440C854DB4F3881C85BD4408B
:10105000C754DB4F4881C95BD440C654DB4F58812D
:10106000CA5BD440B501C6010E94BB101816A4F497
:10107000C954DB4FA882C75BD440C854DB4FB88249
:10108000C85BD440C754DB4FC882C95BD440C65448
:10109000DB4FD882CA5BD440C554DB4F2881CB5B81
:1010A000D440C454DB4F3881CC5BD440C354DB4FB5
:1010B0004881CD5BD440C254DB4F5881CE5BD440D5
:1010C000B101C2010E94600E87FF14C0C554DB4FFE
:1010D0002882CB5BD440C454DB4F3882CC5BD440F5
:1010E000C354DB4F4882CD5BD440C254DB4F58829F
:1010F000CE5BD440C154DB4F2881CF5BD440C05479
:10110000DB4F3881C05CD440CF53DB4F4881C15C9A
:10111000D440CE53DB4F5881C25CD440B301C401EC
:101120000E94600E87FF14C0C154DB4F6882CF5B02
:10113000D440C054DB4F7882C05CD440CF53DB4FE7
:101140008882C15CD440CE53DB4F9882C25CD440CD
:10115000CD53DB4F2881C35CD440CC53DB4F388167
:10116000C45CD440CB53DB4F4881C55CD440CA53E8
:10117000DB4F5881C65CD440B501C6010E94BB104C
:101180001816A4F4CD53DB4FA882C35CD440CC53D3
:10119000DB4FB882C45CD440CB53DB4FC882C55C04
:1011A000D440CA53DB4FD882C65CD440CF54DB4F07
:1011B00088819981C15BD4400196CF54DB4F9983DC
:1011C0008883C15BD4408436910509F0C7CECD54E5
:1011D000DB4F6881C35BD4407E2D8F2D902F0E9402
:1011E00085107093C2026093C102CC54DB4F6881BA
:1011F000C45BD440712FCB54DB4F8881C55BD44096
:10120000CA54DB4F9881C65BD4400E94851070930E
:10121000C4026093C302C954DB4F6881C75BD440EA
:10122000C854DB4F7881C85BD440C754DB4F8881FA
:10123000C95BD440C654DB4F9881CA5BD4400E943E
:1012400085107093C6026093C502C554DB4F688158
:10125000CB5BD440C454DB4F7881CC5BD440C354C7
:10126000DB4F8881CD5BD440C254DB4F9881CE5B8D
:10127000D4400E9485107093BC026093BB02C1549D
:10128000DB4F6881CF5BD440C054DB4F7881C05CBA
:10129000D440CF53DB4F8881C15CD440CE53DB4F69
:1012A0009881C25CD4400E9485107093BE02609306
:1012B000BD02CD53DB4F6881C35CD440CC53DB4FC0
:1012C0007881C45CD440CB53DB4F8881C55CD4406B
:1012D000CA53DB4F9881C65CD4400E94851070933E
:1012E000C0026093BF02CA53DB4F0FB6F894DEBF53
:1012F0000FBECDBFDF91CF911F910F91FF90EF9067
:10130000DF90CF90BF90AF909F908F907F906F9025
:101310005F904F903F902F9008950C946306CF9369
:10132000DF9300D0CDB7DEB7789484B5826084BDFA
:1013300084B5816084BD85B5826085BD85B58160D9
:1013400085BD80916E00816080936E001092810057
:101350008091810082608093810080918100816012
:1013600080938100809180008160809380008091D3
:10137000B10084608093B1008091B000816080935F
:10138000B00080917A00846080937A0080917A0026
:10139000826080937A0080917A00816080937A00E5
:1013A00080917A00806880937A001092C100109238
:1013B000B4031092B5031092B6031092B7031092C3
:1013C00072031092730310927403109275030E94BB
:1013D000B8026B017C014B015C0128EB820E2BE013
:1013E000921EA11CB11C0E94B8026C157D058E05D1
:1013F0009F0528F086169706A806B906A0F783ED84
:1014000092E09093B3038093B2030E94C0050E94C0
:10141000B802609372037093730380937403909384
:10142000750364E271E08091B2039091B3030E946E
:101430008D090E94B8026B017C014B015C013AE00E
:10144000830E911CA11CB11C0E94B8026C157D0575
:101450008E059F0528F086169706A806B906A0F700
:1014600081E0809386030E94C00501E023E042E012
:101470006BE68091C4030E94D20300E022E044E0C6
:101480006BE18091C4030E94D20322E044E06CE14E
:101490008091C4030E94D203F090C40308EE13E0CD
:1014A0009E012F5F3F4F41E06BE68F2D0E94C402EB
:1014B00089818F7B89838A83AE014E5F5F4F6BE6A4
:1014C0008F2D0E94440666E371E083ED92E00E9456
:1014D0008D099E012F5F3F4F41E065E78091C40376
:1014E0000E94C402882339F089818E7790E0959517
:1014F00087958093C5038091C5038433A9F46AE47A
:1015000071E083ED92E00E948D096AE070E080E076
:1015100090E00E947E026AE571E083ED92E00E9415
:101520008D090E94D50606C069E771E083ED92E05F
:101530000E948D090E94B802672B682B692B41F429
:101540000E94B802623071058105910508F40EC150
:101550000E94B802C0906C02D0906D02E0906E02C2
:10156000F0906F026C157D058E059F0540F4609329
:101570006C0270936D0280936E0290936F02C09024
:101580006C02D0906D02E0906E02F0906F029B01B1
:10159000AC012C193D094E095F0969017A013AEF46
:1015A000C316D104E104F10408F4E0C060936C02B6
:1015B00070936D0280936E0290936F0284EF91E0BE
:1015C000A0E0B0E080937E0390937F03A09380031C
:1015D000B0938103109282031092830310928403CC
:1015E000109285038091760390917703A091780300
:1015F000B091790380937A0390937B03A0937C034B
:10160000B0937D030E94B8026093760370937703D2
:1016100080937803909379030E94B80260937203D9
:101620007093730380937403909375030E94B802C0
:101630006B017C0165EA71E08091B2039091B30384
:101640000E948D092AE041E050E060E070E0809166
:10165000B2039091B3030E9478066CEA71E0809126
:10166000B2039091B3030E948D092AE0B701A6014D
:101670008091B2039091B3030E9478066EEA71E004
:101680008091B2039091B3030E948D0980917603FB
:1016900090917703A0917803B0917903B701A601E7
:1016A000481B590B6A0B7B0B2AE08091B203909187
:1016B000B3030E9478066EEA71E08091B2039091C4
:1016C000B3030E948D094091760350917703609196
:1016D00078037091790380917A0390917B03A091B4
:1016E0007C03B0917D03481B590B6A0B7B0B2AE0EE
:1016F0008091B2039091B3030E94780660EB71E091
:101700008091B2039091B3030E948D090E94B802A8
:10171000AB01BC012AE08091B2039091B3030E9417
:10172000780662EB71E08091B2039091B3030E945E
:10173000C1060E94B8026B017C014B015C0195E07F
:10174000890E911CA11CB11C0E94B8026C157D056C
:101750008E059F0508F055C20E94B802609376037B
:1017600070937703809378039093790308EE13E0E6
:1017700025EC33E046E06BE38091C4030E94C40291
:101780008091C5039091C603982789279827909345
:101790006B0280936A028091C7039091C8039827D7
:1017A0008927982790936902809368028091C903E2
:1017B0009091CA039827892798279093670280936E
:1017C00066020E94B8026B017C018091D303909164
:1017D000D403A091D503B091D603A7019601281B8D
:1017E000390B4A0B5B0B243131054105510508F4D7
:1017F00050C060916A0270916B02072E000C880B3A
:10180000990B0E94670E2DEC3CEC4CEC54E40E94CA
:1018100013106093CF027093D0028093D102909303
:10182000D2026091680270916902072E000C880B49
:10183000990B0E94670E2DEC3CEC4CEC54E40E949A
:1018400013106093CB027093CC028093CD029093DF
:10185000CE026091660270916702072E000C880B21
:10186000990B0E94670E2DEC3CEC4CEC54E40E946A
:1018700013106093C7027093C8028093C9029093BB
:10188000CA02C092D303D092D403E092D503F0925F
:10189000D6034090CF025090D0026090D102709059
:1018A000D2028090CB029090CC02A090CD02B0905A
:1018B000CE02C090C702D090C802E090C902F0905A
:1018C000CA026091BB027091BC02072E000C880B0B
:1018D000990B0E94670E9B01AC01C301B2010E94EB
:1018E000BB101816DCF46091C1027091C202072E81
:1018F000000C880B990B0E94670E9B01AC01C30181
:10190000B2010E94600E87FF09C01092620210921D
:101910006302109264021092650208C04092620253
:101920005092630260926402709265026091C302F9
:101930007091C402072E000C880B990B0E94670E51
:101940009B01AC01C501B4010E94600E87FF1BC062
:101950006091BD027091BE02072E000C880B990B9E
:101960000E94670E9B01AC01C501B4010E94BB102F
:1019700018164CF410925A0210925B0210925C02FC
:1019800010925D0208C080925A0290925B02A0926F
:101990005C02B0925D026091C5027091C602072E92
:1019A000000C880B990B0E94670E9B01AC01C701CC
:1019B000B6010E94600E87FF1BC06091BF0270914C
:1019C000C002072E000C880B990B0E94670E9B012A
:1019D000AC01C701B6010E94BB1018164CF410925E
:1019E00056021092570210925802109259021DC0CE
:1019F000A701960163EC75EF8CE191E40E94A60FBC
:101A00006B017C0120E030E0A9010E94BB10181698
:101A100024F0F7FAF094F7F8F094C0925602D092BE
:101A20005702E0925802F0925902C0906202D090A0
:101A30006302E0906402F090650220E030E040E054
:101A40005FE3C701B6010E94C60E2CE137EC41E30B
:101A500052E40E94C60E4B015C012CE137EC41E3DD
:101A600052E4C701B6010E94C60E9B01AC01C5013C
:101A7000B4010E94A70F20915E0230915F02409155
:101A80006002509161020E94A70F6B017C014B0123
:101A90005C0160935E0270935F028093600290939A
:101AA00061029B01AC010E94C010882319F069EB10
:101AB00071E01AC026013701E89477F82FEF3FEF65
:101AC0004FE75FE7C301B2010E94C010811111C04E
:101AD0002FEF3FEF4FE75FE7C301B2010E94600EB7
:101AE00018163CF46DEB71E083ED92E00E94630602
:101AF0007FC02FEF3FEF4FE75FE4C701B6010E94C1
:101B0000BB1018161CF461EC71E0EECF2FEF3FEF25
:101B10004FE75FECC701B6010E94600E87FDF3CF6F
:101B200020E030E0A901C701B6010E94600E87FFE6
:101B30000BC06DE283ED92E00E94C900460157019F
:101B4000B7FAB094B7F8B0942AE037ED43EA5BE314
:101B5000C501B4010E94A70F4B015C010E948C10CB
:101B60006B017C010E94650E9B01AC01C501B401B3
:101B70000E94A60F4B015C012AE0B701A60183ED8C
:101B800092E00E9478066EE283ED92E00E94C90026
:101B900020E030E040E251E4C501B4010E94C60EED
:101BA0004B015C010E948C106B01E12CF12C2AE0AE
:101BB000B701A60183ED92E00E947806C701B60145
:101BC0000E94650E9B01AC01C501B4010E94A60FE5
:101BD00020E030E040E251E40E94C60E0E948C10EA
:101BE000AB0160E070E02AE083ED92E00E947806AD
:101BF00063E371E083ED92E00E9463060E94380186
:101C000099CC86169706A806B90608F09DCDA4CDF6
:101C1000E3EDF2E01382128288EE93E0A0E0B0E000
:101C200084839583A683B78324E031E031832083C6
:101C300025EC30E03587248724EC30E03787268791
:101C400020EC30E0318B208B21EC30E0338B228B89
:101C500022EC30E0358B248B26EC30E0378B268B62
:101C6000118E128E138E148EE0E7F3E01682178227
:101C70001086118612861386148615861686178698
:101C8000108A118A128A138A148A158AE8EBF3E003
:101C90001382128284839583A683B78386E191E0C1
:101CA000918380830E94B8026093D3037093D4031E
:101CB0008093D5039093D60388E68093C403089558
:101CC0000E94A20E08F481E00895E89409C097FBF1
:101CD0003EF490958095709561957F4F8F4F9F4F03
:101CE0009923A9F0F92F96E9BB279395F695879547
:101CF00077956795B795F111F8CFFAF4BB0F11F40A
:101D000060FF1BC06F5F7F4F8F4F9F4F16C08823B0
:101D100011F096E911C0772321F09EE8872F762FE6
:101D200005C0662371F096E8862F70E060E02AF027
:101D30009A95660F771F881FDAF7880F9695879513
:101D400097F90895990F0008550FAA0BE0E8FEEFE8
:101D500016161706E807F907C0F012161306E4076F
:101D6000F50798F0621B730B840B950B39F40A2668
:101D700061F0232B242B252B21F408950A2609F446
:101D8000A140A6958FEF811D811D08950E94D90E57
:101D90000C944A0F0E943C0F38F00E94430F20F031
:101DA000952311F00C94330F0C94390F11240C94DB
:101DB0007E0F0E945B0F70F3959FC1F3950F50E06B
:101DC000551F629FF001729FBB27F00DB11D639FED
:101DD000AA27F00DB11DAA1F649F6627B00DA11D93
:101DE000661F829F2227B00DA11D621F739FB00D39
:101DF000A11D621F839FA00D611D221F749F3327A9
:101E0000A00D611D231F849F600D211D822F762F41
:101E10006A2F11249F5750409AF0F1F088234AF01E
:101E2000EE0FFF1FBB1F661F771F881F915050408A
:101E3000A9F79E3F510580F00C94330F0C947E0F50
:101E40005F3FE4F3983ED4F3869577956795B79511
:101E5000F795E7959F5FC1F7FE2B880F911D96952B
:101E6000879597F9089597F99F6780E870E060E09B
:101E700008959FEF80EC089500240A941616170623
:101E800018060906089500240A941216130614066B
:101E900005060895092E0394000C11F4882352F0CE
:101EA000BB0F40F4BF2B11F460FF04C06F5F7F4F86
:101EB0008F4F9F4F089557FD9058440F551F59F06D
:101EC0005F3F71F04795880F97FB991F61F09F3F27
:101ED00079F087950895121613061406551FF2CF50
:101EE0004695F1DF08C0161617061806991FF1CFA0
:101EF00086957105610508940895E894BB276627C7
:101F00007727CB0197F90895A1E21A2EAA1BBB1BD4
:101F1000FD010DC0AA1FBB1FEE1FFF1FA217B307B5
:101F2000E407F50720F0A21BB30BE40BF50B661FCB
:101F3000771F881F991F1A9469F76095709580958F
:101F400090959B01AC01BD01CF0108955058BB276E
:101F5000AA270E94BE0F0C944A0F0E943C0F38F033
:101F60000E94430F20F039F49F3F19F426F40C949B
:101F7000390F0EF4E095E7FB0C94330FE92F0E9424
:101F80005B0F58F3BA17620773078407950720F0B1
:101F900079F4A6F50C947D0F0EF4E0950B2EBA2F74
:101FA000A02D0B01B90190010C01CA01A00111245F
:101FB000FF27591B99F0593F50F4503E68F11A160B
:101FC000F040A22F232F342F4427585FF3CF46959C
:101FD00037952795A795F0405395C9F77EF41F16BE
:101FE000BA0B620B730B840BBAF09150A1F0FF0F88
:101FF000BB1F661F771F881FC2F70EC0BA0F621F74
:10200000731F841F48F4879577956795B795F79563
:102010009E3F08F0B0CF9395880F08F09927EE0FF8
:102020009795879508950E9427100C944A0F0E9457
:10203000430F58F00E943C0F40F029F45F3F29F015
:102040000C94330F51110C947E0F0C94390F0E9495
:102050005B0F68F39923B1F3552391F3951B550B4F
:10206000BB27AA2762177307840738F09F5F5F4F6B
:10207000220F331F441FAA1FA9F335D00E2E3AF0AA
:10208000E0E832D091505040E695001CCAF72BD0C2
:10209000FE2F29D0660F771F881FBB1F2617370713
:1020A0004807AB07B0E809F0BB0B802DBF01FF2745
:1020B00093585F4F3AF09E3F510578F00C94330FE0
:1020C0000C947E0F5F3FE4F3983ED4F386957795AA
:1020D0006795B795F7959F5FC9F7880F911D9695FE
:1020E000879597F90895E1E0660F771F881FBB1F5A
:1020F000621773078407BA0720F0621B730B840B07
:10210000BA0BEE1F88F7E09508950E948C10689432
:10211000B1110C947E0F08950E94630F88F09F57B1
:1021200098F0B92F9927B751B0F0E1F0660F771FFB
:10213000881F991F1AF0BA95C9F714C0B13091F0F1
:102140000E947D0FB1E008950C947D0F672F782FCA
:102150008827B85F39F0B93FCCF3869577956795B6
:10216000B395D9F73EF490958095709561957F4F22
:102170008F4F9F4F08950E94A20E08F48FEF08958D
:102180000E94A20E880B990B0895EE0FFF1F059079
:10219000F491E02D099481E090E0F8940C94D01033
:0421A000F894FFCFE1
:1021A40000000000C90096056000160191006F0050
:1021B400830000000000F101C40121025F00BC01A2
:1021C400A8019901564D4450565F317C315F564DFC
:1021D4004450560D0A00696E697469616C697A69C4
:1021E4006E67204D50552E2E2E004465766963652A
:1021F4002069732072656164790063616C6C696243
:10220400726174696E6720616363656C65726F6D7A
:1022140065746572732E2E2E00504C6561736520B3
:10222400636865636B204D50552C20636F6E6E653B
:102234006374696F6E206E6F742073756363657366
:102244007366756C00564D4450455F003A323A004F
:102254007C005F564D445045006E616E00696E66A9
:10226400006F7666004461746120697320636F6C4B
:102274006C656374656400436F6C6C656374696E4C
:08228400672064617461000031
:00000001FF
