:100000000C9462000C948A000C948A000C948A0070
:100010000C948A000C948A000C948A000C948A0038
:100020000C948A000C948A000C948A000C948A0028
:100030000C948A000C948A000C948A000C948A0018
:100040000C94F1020C948A000C9479020C945302E3
:100050000C948A000C948A000C948A000C948A00F8
:100060000C943B030C948A00036EDB363D9A9999FD
:10007000993DABAAAA2A3E000000803F072C7AA532
:10008000BA6CC590DA3B9365FC8BBC53F810FD3C11
:100090005692834DBD879D3AB63DCBC9BF5BBE73BB
:1000A000DA0FC93F05A84CCDB2D44EB93836A902F3
:1000B0000C50B9918688083CA6AAAA2ABE00000066
:1000C000803F3C1111241FBECFEFD8E0DEBFCDBF73
:1000D00024E0A0E7B2E001C01D92A535B207E1F728
:1000E00012E0A0E0B1E0ECE2FAE202C005900D926D
:1000F000A037B107D9F710E0C2E6D0E004C02197DD
:10010000FE010E940915C136D107C9F70E94F40CFF
:100110000C9414150C9400000895FC01538D448D2B
:10012000252F30E0842F90E0821B930B541710F0A2
:10013000CF96089501970895FC01918D828D9817AF
:1001400061F0828DDF01A80FB11D5D968C91928DBB
:100150009F5F9F73928F90E008958FEF9FEF0895B8
:10016000FC01918D828D981731F0828DE80FF11D81
:10017000858D90E008958FEF9FEF0895FC01918D9C
:10018000228D892F90E0805C9F4F821B91098F7395
:100190009927089585E593E00E94BE0021E0892B10
:1001A00009F420E0822F0895FC01848DDF01A80F5F
:1001B000B11DA35ABF4F2C91848D90E001968F738F
:1001C0009927848FA689B7892C93A089B1898C91AE
:1001D000837080648C93938D848D981306C00288FD
:1001E000F389E02D80818F7D80830895EF92FF92C7
:1001F0000F931F93CF93DF93EC0181E0888F9B8D4A
:100200008C8D981305C0E889F989808185FD26C009
:10021000F62E0B8D10E00F5F1F4F0F731127E02E8E
:100220008C8DE8120CC00FB607FCFACFE889F9896B
:10023000808185FFF5CFCE010E94D400F1CF8B8D58
:10024000FE01E80FF11DE35AFF4FF0829FB7F894CB
:100250000B8FEA89FB89808180620AC09FB7F8947E
:10026000EE89FF896083E889F989808183708064E1
:1002700080839FBF81E090E0DF91CF911F910F912C
:10028000FF90EF900895CF93DF93EC01888D882342
:10029000C9F0EA89FB89808185FD05C0A889B989F3
:1002A0008C9186FD0FC00FB607FCF5CF808185FFCE
:1002B000F2CFA889B9898C9185FFEDCFCE010E943C
:1002C000D400E7CFDF91CF91089580E090E0892BB3
:1002D00029F00E94CA0081110C94000008953FB7D4
:1002E000F8948091DA029091DB02A091DC02B09147
:1002F000DD0226B5A89B05C02F3F19F00196A11D70
:10030000B11D3FBFBA2FA92F982F8827820F911DAB
:10031000A11DB11DBC01CD0142E0660F771F881FF2
:10032000991F4A95D1F7089585ED8093BC0080917F
:10033000BC0084FDFCCF1092300308954091B202BE
:10034000262F30E0240F311D21323105DCF42091BD
:1003500030032430C9F4FC0180E090E0861758F4A3
:100360003091B2022191DC01AE56BD4FA30FB11DF9
:100370002C930196F3CF8091B202680F6093B20282
:1003800080E0089581E0089582E00895E09191026F
:1003900080919002E81730F4F0E0E059FD4F808141
:1003A00090E008958FEF9FEF0895909191028091D2
:1003B0009002981750F4E92FF0E0E059FD4F2081AA
:1003C00030E09F5F9093910202C02FEF3FEFC90191
:1003D00008958091900290E020919102821B9109F2
:1003E0000895CF92DF92EF92FF920F931F93CF93D6
:1003F000DF937C01CB018A0120913103222389F014
:10040000EB016B01C40ED51ECC15DD0569F06991B9
:10041000D701ED91FC910190F081E02DC701099584
:10042000F3CF642F0E949E01C801DF91CF911F91ED
:100430000F91FF90EF90DF90CF900895CF93DF93CF
:100440001F92CDB7DEB76983209131032223D1F00B
:1004500020915403203240F021E030E0FC0133834E
:10046000228380E090E015C080913203E82FF0E015
:10047000ED5CFC4F998190838F5F80933203809372
:10048000540305C061E0CE0101960E949E0181E007
:1004900090E00F90DF91CF910895089580E090E073
:1004A00008950E940F151F920F920FB60F921124FC
:1004B0002F933F934F935F936F937F938F939F936C
:1004C000AF93BF93EF93FF9385E593E00E94D40031
:1004D000FF91EF91BF91AF919F918F917F916F911C
:1004E0005F914F913F912F910F900FBE0F901F90F2
:1004F00018951F920F920FB60F9211242F938F937E
:100500009F93EF93FF93E0916503F09166038081E1
:10051000E0916B03F0916C0382FD12C09081809199
:100520006E038F5F8F7320916F03821751F0E091FC
:100530006E03F0E0EB5AFC4F958F80936E0301C081
:100540008081FF91EF919F918F912F910F900FBE1E
:100550000F901F9018958F929F92AF92BF92CF925B
:10056000DF92EF92FF926B017C010E946F014B01C1
:100570005C01C114D104E104F104F1F00E946F01A7
:10058000DC01CB0188199909AA09BB09883E93406F
:10059000A105B10570F321E0C21AD108E108F10804
:1005A00088EE880E83E0981EA11CB11CC114D104F2
:1005B000E104F10419F7DDCFFF90EF90DF90CF90C9
:1005C000BF90AF909F908F9008952FB7F89460914F
:1005D000D6027091D7028091D8029091D9022FBF94
:1005E00008951F920F920FB60F9211242F933F93ED
:1005F0008F939F93AF93BF938091D6029091D70230
:10060000A091D802B091D9023091D50223E0230FF6
:100610002D3720F40196A11DB11D05C026E8230F3A
:100620000296A11DB11D2093D5028093D60290930E
:10063000D702A093D802B093D9028091DA029091A8
:10064000DB02A091DC02B091DD020196A11DB11D7B
:100650008093DA029093DB02A093DC02B093DD0278
:10066000BF91AF919F918F913F912F910F900FBEAE
:100670000F901F9018951F920F920FB60F92112492
:100680002F933F934F935F936F937F938F939F939A
:10069000AF93BF93EF93FF938091B900887F80362B
:1006A00009F49CC068F5883209F45BC090F480318D
:1006B00009F454C038F4882309F4F2C0883009F4EE
:1006C0004DC0F2C0883109F44CC0803209F45DC0DD
:1006D000EBC0803409F468C048F4803309F455C095
:1006E000883309F0E1C080932E03D4C0803509F42B
:1006F0004FC0883509F45DC0883409F0D5C0D2C038
:10070000883909F4C3C0A8F4883709F467C038F4FD
:10071000883609F463C0803709F460C0C5C08838E2
:1007200009F4B4C0803909F45FC0803809F0BCC056
:100730005BC0803B09F484C038F4803A09F466C099
:10074000883A09F47DC0B0C0803C09F4A3C0883C5D
:1007500009F4A0C0883B09F486C0A6C080910B03B1
:1007600010C090912D0380912C03981770F5E091A3
:100770002D0381E08E0F80932D03F0E0E45FFC4FAA
:1007800080818093BB0085EC82C080932E038AC059
:10079000E0912D0381E08E0F80932D038091BB00AB
:1007A000F0E0E45FFC4F808390912D0380912C0357
:1007B0006AC0E0912D0381E08E0F80932D0380911C
:1007C000BB00F0E0E45FFC4F808380912F03811138
:1007D00069C081E080930A0384EA5DC083E080936E
:1007E00030031092D402CFCF8091D402803208F02F
:1007F0004DC0E091D40281E08E0F8093D4028091AD
:10080000BB00F0E0EC54FD4F8083BDCF85EC8093BE
:10081000BC00109230038091D402803230F4E09119
:10082000D402F0E0EC54FD4F10826091D40270E0ED
:1008300084EB92E0E0E0F0E009951092D40234C03D
:1008400084E0809330031092B3021092B202E0E091
:10085000F0E009958091B202811105C081E080939A
:10086000B20210929202E091B30281E08E0F809367
:10087000B302F0E0EE56FD4F80818093BB00909173
:10088000B3028091B202981708F47DCF85E8809377
:10089000BC000AC085EC8093BC001092300304C0F9
:1008A00010922E030E949401FF91EF91BF91AF919E
:1008B0009F918F917F916F915F914F913F912F9178
:1008C0000F900FBE0F901F9018952F923F924F924E
:1008D0005F926F927F928F929F92AF92BF92CF92D0
:1008E000DF92EF92FF920F931F93CF93DF93CDB7D9
:1008F000DEB728970FB6F894DEBF0FBECDBFC82E67
:10090000962E4887190178010E94E5022B013C01CF
:100910008C2C880CD12C10E001E02885A22EB12C63
:10092000C701A0E0B0E08B839C83AD83BE83988534
:10093000D91608F089C000933103C0925303109276
:10094000320310925403692D8AE394E00E941E0240
:1009500081E00E94150600933103C0925303109268
:10096000320310925403809130038111FCCFC501F2
:100970008D1991098132910514F080E290E08F8306
:10098000813210F0A0E2AF830093300300932F0375
:10099000BFEFB0932E0310922D038F81815080936F
:1009A0002C0300930B0380910B03882980930B0386
:1009B00080910A03813071F410920A0380910B0335
:1009C0008093BB008091BC0083FDF8CFE5ECE09301
:1009D000BC0003C0F5EEF093BC0080913003813081
:1009E000E1F380912D032F81821718F430912D03AC
:1009F0003F83ECE0F3E0A0E7B2E080E04F818417B2
:100A000021F091919D938F5FF9CF109291024093C5
:100A10009002809191025F81581709F444C0E1145B
:100A2000F10489F10E94E502DC01CB0184199509EA
:100A3000A609B7092B813C814D815E8182179307FE
:100A4000A407B50700F12FC0E114F10491F10E9451
:100A5000E502DC01CB0184199509A609B7096701F4
:100A6000E12CF12C8C159D05AE05BF0510F14885D4
:100A7000242F30E0812F012E000C990B8217930751
:100A8000C4F41FEF16C0C101810F911D17FD9A9587
:100A90009A8389838AE394E00E94D501A981BA816F
:100AA0008C931F5FB6CF8885813208F080E2D80E24
:100AB0003ECF812F28960FB6F894DEBF0FBECDBF74
:100AC000DF91CF911F910F91FF90EF90DF90CF902A
:100AD000BF90AF909F908F907F906F905F904F905E
:100AE0003F902F900895BF92CF92DF92EF92FF92A6
:100AF0000F931F93CF93DF9300D0CDB7DEB7F82EBF
:100B0000E62EC42EB22ED02E08EE13E09E012E5FEC
:100B10003F4F41E00E946504882341F14C2D50E095
:100B20004B1951094F5F5F4F81E090E002C0880F81
:100B3000991FBA94E2F70197042E01C0880F0A9416
:100B4000EAF72D2D01C0220F4A95EAF7382F30958C
:100B50009A8193238223892B8A838983AE014F5FF5
:100B60005F4F6E2D8F2D0E94710601C080E00F90A7
:100B70000F90DF91CF911F910F91FF90EF90DF9039
:100B8000CF90BF900895CF92DF92EF92FF920F9394
:100B90001F93CF93DF936C017A018B01C0E0D0E00B
:100BA000CE15DF0581F0D8016D918D01D601ED9153
:100BB000FC910190F081E02DC6010995892B11F07F
:100BC0002196EECF7E01C701DF91CF911F910F914A
:100BD000FF90EF90DF90CF900895E5E5F3E0A089D6
:100BE000B18982E08C93A485B5851C92A685B785D2
:100BF0008FEC8C93108EA489B58986E08C93A289A2
:100C0000B3898C9180618C93A289B3898C9188601F
:100C10008C93A289B3898C9180688C930288F38924
:100C2000E02D80818F7D80830895282F309154039B
:100C3000313208F04AC0809130038111FCCF90918D
:100C4000530342E04093300320932F032FEF209370
:100C50002E0310922D0330932C03E3E3F3E0ACE07A
:100C6000B3E020E0321721F041914D932F5FFACF8E
:100C700010920B0320910B03990F922B90930B036F
:100C800090910A03913061F410920A0390910B0342
:100C90009093BB009091BC0093FDF8CF95EC01C000
:100CA00095EE9093BC00909130039230E1F39091D7
:100CB0002E039F3F79F080912E03803241F0809186
:100CC0002E03803331F084E005C081E003C082E070
:100CD00001C083E01092320310925403109231034A
:100CE0000895CF93DF93EA0191E0909331038093CD
:100CF000530310923203109254038AE394E00E944B
:100D00001E0268818AE394E00E941E0281E00E9434
:100D1000150691E0811190E0892FDF91CF91089520
:100D20006115710579F0FB0101900020E9F7319719
:100D3000AF01461B570BDC01ED91FC910280F38162
:100D4000E02D099480E090E008958F929F92AF92F9
:100D5000BF92EF92FF920F931F93CF93DF93CDB784
:100D6000DEB7A1970FB6F894DEBF0FBECDBF7C01F2
:100D7000FA01CB0119A2223008F42AE08E010F5D9E
:100D80001F4F822E912CA12CB12CBF01A5019401E3
:100D90000E94B012F901CA01015011096A3014F41D
:100DA000605D01C0695CD8016C93232B242B252B3B
:100DB00061F7B801C7010E949006A1960FB6F8949A
:100DC000DEBF0FBECDBFDF91CF911F910F91FF907E
:100DD000EF90BF90AF909F908F900895CF92DF9249
:100DE000EF92FF92CF93DF936C01990FEE08FF080B
:100DF000F7FE1BC06DE285E593E00E94F600EC0172
:100E000044275527BA014C195D096E097F092AE06C
:100E100085E593E00E94A5068C0F9D1FDF91CF9181
:100E2000FF90EF90DF90CF9008952AE0B701A601E0
:100E300085E593E0DF91CF91FF90EF90DF90CF9029
:100E40000C94A506CF93DF930E94EE06EC0165E3B8
:100E500071E085E593E00E9490068C0F9D1FDF9165
:100E6000CF9108950F931F93CF93DF93EC010E94CE
:100E700090068C0165E371E0CE010E949006800F20
:100E8000911FDF91CF911F910F9108952F923F9263
:100E90004F925F926F927F928F929F92AF92BF928A
:100EA000CF92DF92EF92FF920F931F93CF93DF9336
:100EB000CDB7DEB7C65CD4400FB6F894DEBF0FBE28
:100EC000CDBFCF5DDC4F8881C152D340CD54DB4FC5
:100ED0008883C35BD440CE5DDC4FC880C252D34010
:100EE000CD5DDC4FD880C352D340CC5DDC4FE88071
:100EF000C452D340CF56DE4F9881C159D140CC5413
:100F0000DB4F9883C45BD440CE56DE4FF880C25985
:100F1000D140CD56DE4F8881C359D140CB54DB4FF1
:100F20008883C55BD440CC56DE4F9881C459D140EC
:100F3000CA54DB4F9883C65BD4408981C954DB4FC8
:100F40008883C75BD4409A81C854DB4F9883C85BC1
:100F5000D4408B81C754DB4F8883C95BD4409C81CC
:100F6000C654DB4F9883CA5BD440C954DB4F888199
:100F7000C75BD440CD53DB4F8883C35CD440C85497
:100F8000DB4F9881C85BD440CC53DB4F9883C45C63
:100F9000D440C754DB4F8881C95BD440CB53DB4F6F
:100FA0008883C55CD440C654DB4F9881CA5BD4406B
:100FB000CA53DB4F9883C65CD440CC54DB4F888146
:100FC000C45BD440C154DB4F8883CF5BD440C05452
:100FD000DB4FF882C05CD440CB54DB4F9881C55BBB
:100FE000D440CF53DB4F9883C15CD440CA54DB4F0D
:100FF0008881C65BD440CE53DB4F8883C25CD4402B
:10100000CD54DB4F9881C35BD440C554DB4F9883EC
:10101000CB5BD440C454DB4FC882CC5BD440C354B8
:10102000DB4FD882CD5BD440C254DB4FE882CE5B2D
:10103000D440CF54DB4F19821882C15BD44008EEF4
:1010400013E027E434E042E06BE3809146040E9421
:1010500065046091470470914804762767277627D6
:10106000072E000C880B990B0E9493112DEC3CEC81
:101070004CEC54E40E945A132B013C0127E434E069
:1010800042E06DE3809146040E946504609147044C
:1010900070914804762767277627072E000C880B67
:1010A000990B0E9493112DEC3CEC4CEC54E40E9403
:1010B0005A134B015C0127E434E042E06FE3809176
:1010C00046040E94650460914704709148047627A5
:1010D00067277627072E000C880B990B0E94931127
:1010E0002DEC3CEC4CEC54E40E945A131B018C0197
:1010F00062E370E080E090E00E94AB02CF54DB4FEF
:1011000088819981C15BD4408336910539F463EFBE
:1011100071E085E593E00E943207FAC069E172E070
:1011200085E593E00E943207CD54DB4F2881C35BF5
:10113000D4403C2D4D2D5E2DB201C3010E945D14A3
:10114000181644F4CD54DB4F4882C35BD440C52C01
:10115000D62CE72CCC54DB4F2881C45BD4403F2DE8
:10116000CB54DB4F4881C55BD440CA54DB4F588118
:10117000C65BD440B401C5010E945D14181684F406
:10118000CC54DB4F8882C45BD440F92CCB54DB4F6A
:10119000A882C55BD440CA54DB4FB882C65BD4403A
:1011A000C954DB4F2881C75BD440C854DB4F38811A
:1011B000C85BD440C754DB4F4881C95BD440C65498
:1011C000DB4F5881CA5BD440B101C8010E945D1455
:1011D0001816A4F4C954DB4F2882C75BD440C85406
:1011E000DB4F3882C85BD440C754DB4F0883C95BF0
:1011F000D440C654DB4F1883CA5BD440C554DB4F80
:101200002881CB5BD440C454DB4F3881CC5BD440C5
:10121000C354DB4F4881CD5BD440C254DB4F58816F
:10122000CE5BD440B201C3010E948C1187FF14C071
:10123000C554DB4F4882CB5BD440C454DB4F58824B
:10124000CC5BD440C354DB4F6882CD5BD440C254E6
:10125000DB4F7882CE5BD440C154DB4F2881CF5B1B
:10126000D440C054DB4F3881C05CD440CF53DB4FF7
:101270004881C15CD440CE53DB4F5881C25CD4401E
:10128000B401C5010E948C1187FF14C0C154DB4F0B
:101290008882CF5BD440C054DB4F9882C05CD4407E
:1012A000CF53DB4FA882C15CD440CE53DB4FB88212
:1012B000C25CD440CD53DB4F2881C35CD440CC53B7
:1012C000DB4F3881C45CD440CB53DB4F4881C55CD5
:1012D000D440CA53DB4F5881C65CD440B101C80129
:1012E0000E945D141816A4F4CD53DB4F2882C35C12
:1012F000D440CC53DB4F3882C45CD440CB53DB4F5B
:101300000883C55CD440CA53DB4F1883C65CD44005
:10131000CF54DB4F88819981C15BD4400196CF5473
:10132000DB4F99838883C15BD4408436910509F0F3
:1013300086CECD54DB4F6881C35BD4407C2D8D2D90
:101340009E2D0E94CC137093050360930403CC542C
:10135000DB4F6881C45BD4407F2DCB54DB4F888149
:10136000C55BD440CA54DB4F9881C65BD4400E9411
:10137000CC137093070360930603C954DB4F688155
:10138000C75BD440C854DB4F7881C85BD440C75496
:10139000DB4F8881C95BD440C654DB4F9881CA5B60
:1013A000D4400E94CC137093090360930803C55482
:1013B000DB4F6881CB5BD440C454DB4F7881CC5B7E
:1013C000D440C354DB4F8881CD5BD440C254DB4F43
:1013D0009881CE5BD4400E94CC137093FF0260933F
:1013E000FE02C154DB4F6881CF5BD440C054DB4F59
:1013F0007881C05CD440CF53DB4F8881C15CD4403E
:10140000CE53DB4F9881C25CD4400E94CC137093C2
:10141000010360930003CD53DB4F6881C35CD4406C
:10142000CC53DB4F7881C45CD440CB53DB4F8881F5
:10143000C55CD440CA53DB4F9881C65CD4400E943F
:10144000CC137093030360930203CA53DB4F0FB6B0
:10145000F894DEBF0FBECDBFDF91CF911F910F91EA
:10146000FF90EF90DF90CF90BF90AF909F908F90C4
:101470007F906F905F904F903F902F9008952F92A4
:101480003F924F925F926F927F928F929F92AF9214
:10149000BF92CF92DF92EF92FF920F931F93CF9361
:1014A000DF93CDB7DEB7C65CD4400FB6F894DEBF8D
:1014B0000FBECDBFCF5DDC4F8881C152D340CD542C
:1014C000DB4F8883C35BD440CE5DDC4F8880C25243
:1014D000D340CD5DDC4F9880C352D340CC5DDC4F10
:1014E000A880C452D340CF56DE4F9881C159D14015
:1014F000CC54DB4F9883C45BD440CE56DE4FB880CB
:10150000C259D140CD56DE4F2880C359D140CC5668
:10151000DE4F3880C459D14049805A806B807C802E
:10152000C354DB4F4882CD5BD440C254DB4F58825A
:10153000CE5BD440C154DB4F6882CF5BD440C054F3
:10154000DB4F7882C05CD440C754DB4F9883C95BC3
:10155000D440C654DB4FB882CA5BD440C554DB4F7D
:101560002882CB5BD440C454DB4F3882CC5BD44060
:10157000CB54DB4F8883C55BD440CA54DB4F888291
:10158000C65BD440C954DB4F9882C75BD440C85473
:10159000DB4FA882C85BD440CF54DB4F198218823E
:1015A000C15BD44008EE13E027E434E042E063E49A
:1015B000809146040E94650460914704709148043C
:1015C000762767277627072E000C880B990B0E9439
:1015D00093112DEC3CEC4CEC54E40E945A136B013B
:1015E0007C0127E434E042E065E4809146040E94F7
:1015F0006504609147047091480476276727762731
:10160000072E000C880B990B0E9493112DEC3CECDB
:101610004CEC54E40E945A13CF53DB4F6883C15CF7
:10162000D440CE53DB4F7883C25CD440CD53DB4FE4
:101630008883C35CD440CC53DB4F9883C45CD440D4
:1016400027E434E042E067E4809146040E946504A8
:101650006091470470914804762767277627072E04
:10166000000C880B990B0E9493112DEC3CEC4CEC78
:1016700054E40E945A13CB53DB4F6883C55CD440BB
:10168000CA53DB4F7883C65CD4408C0162E370E0C0
:1016900080E090E00E94AB02CF54DB4F88819981BB
:1016A000C15BD4408336910539F467E372E085E588
:1016B00093E00E943207FAC066E572E085E593E0A8
:1016C0000E943207CD54DB4F2881C35BD440382DB4
:1016D000492D5A2DB601C7010E945D14181644F415
:1016E000CD54DB4FC882C35BD4408D2C9E2CAF2CD5
:1016F000CC54DB4F2881C45BD4403B2DA101CF5398
:10170000DB4F6881C15CD440CE53DB4F7881C25C33
:10171000D440CD53DB4F8881C35CD440CC53DB4FE6
:101720009881C45CD4400E945D141816CCF4CF5349
:10173000DB4F9881C15CD440CC54DB4F9883C45BB1
:10174000D440CE53DB4FB880C25CD440CD53DB4F86
:101750002880C35CD440CC53DB4F3880C45CD44079
:101760009201A301CB53DB4F6881C55CD440CA53BF
:10177000DB4F7881C65CD440C8010E945D14181606
:101780005CF4CB53DB4F4880C55CD440CA53DB4F7D
:101790005880C65CD4403801CB54DB4F2881C55BF0
:1017A000D440CA54DB4F3881C65BD440C954DB4FA8
:1017B0004881C75BD440C854DB4F5881C85BD440D4
:1017C000B601C7010E948C1187FF14C0CB54DB4FB8
:1017D000C882C55BD440CA54DB4FD882C65BD440B4
:1017E000C954DB4FE882C75BD440C854DB4FF88252
:1017F000C85BD440C754DB4F2881C95BD440C65472
:10180000DB4F3881CA5BD440C554DB4F4881CB5B8A
:10181000D440C454DB4F5881CC5BD440B601C701DF
:101820000E948C1187FF14C0C754DB4FC882C95B6C
:10183000D440C654DB4FD882CA5BD440C554DB4F7A
:10184000E882CB5BD440C454DB4FF882CC5BD440FD
:10185000C354DB4F2881CD5BD440C254DB4F388169
:10186000CE5BD440C154DB4F4881CF5BD440C054E1
:10187000DB4F5881C05CD440B601C7010E945D14A3
:101880001816A4F4C354DB4FC882CD5BD440C254B5
:10189000DB4FD882CE5BD440C154DB4FE882CF5BB4
:1018A000D440C054DB4FF882C05CD440CF54DB4FEF
:1018B00088819981C15BD4400196CF54DB4F9983D5
:1018C0008883C15BD4408436910509F06BCECD543A
:1018D000DB4F6881C35BD440782D892D9A2D0E94FF
:1018E000CC137093F9026093F802CC54DB4F6881FB
:1018F000C45BD4407B2DC1010E94CC137093FB02CA
:101900006093FA02B201C3010E94CC137093FD02EE
:101910006093FC02CB54DB4F6881C55BD440CA5452
:10192000DB4F7881C65BD440C954DB4F8881C75BED
:10193000D440C854DB4F9881C85BD4400E94CC137C
:101940007093F3026093F202C754DB4F6881C95B66
:10195000D440C654DB4F7881CA5BD440C554DB4FBA
:101960008881CB5BD440C454DB4F9881CC5BD4409E
:101970000E94CC137093F5026093F402C354DB4FC2
:101980006881CD5BD440C254DB4F7881CE5BD440BC
:10199000C154DB4F8881CF5BD440C054DB4F98816A
:1019A000C05CD4400E94CC137093F7026093F6029F
:1019B000CA53DB4F0FB6F894DEBF0FBECDBFDF9129
:1019C000CF911F910F91FF90EF90DF90CF90BF903C
:1019D000AF909F908F907F906F905F904F903F90CF
:1019E0002F9008950C949006CF93DF9300D0CDB73D
:1019F000DEB7789484B5826084BD84B5816084BD8F
:101A000085B5826085BD85B5816085BD80916E009C
:101A1000816080936E0010928100809181008260CD
:101A2000809381008091810081608093810080910A
:101A300080008160809380008091B10084608093F9
:101A4000B1008091B00081608093B00080917A00F5
:101A5000846080937A0080917A00826080937A001B
:101A600080917A00816080937A0080917A0080680A
:101A700080937A001092C1001092360410923704BD
:101A800010923804109239041092F4031092F50366
:101A90001092F6031092F7030E94E5026B017C019D
:101AA0004B015C0128EB820E2BE0921EA11CB11CA5
:101AB0000E94E5026C157D058E059F0528F08616AF
:101AC0009706A806B906A0F785E593E0909335043C
:101AD000809334040E94ED050E94E5026093F403B4
:101AE0007093F5038093F6039093F70366E271E039
:101AF00080913404909135040E94F20C0E94E5021A
:101B00006B017C014B015C013AE0830E911CA11C2E
:101B1000B11C0E94E5026C157D058E059F0528F01D
:101B200086169706A806B906A0F781E080930804F8
:101B30000E94ED0501E023E042E06BE6809146045F
:101B40000E94730500E022E044E06BE180914604CE
:101B50000E94730522E044E06CE1809146040E94FB
:101B60007305F090460408EE13E09E012F5F3F4F8F
:101B700041E06BE68F2D0E94650489818F7B89830C
:101B80008A83AE014E5F5F4F6BE68F2D0E94710618
:101B900068E371E085E593E00E94F20C9E012F5FFF
:101BA0003F4F41E065E7809146040E946504882329
:101BB00039F089818E7790E09595879580934704D9
:101BC00080914704843309F0ADC06CE471E085E591
:101BD00093E00E94F20C6AE070E080E090E00E94E6
:101BE000AB020E9446070E943F0A6CE571E085E562
:101BF00093E00E9432076DE671E085E593E00E9474
:101C0000F20C8091FE029091FF020E94EE0664E7C2
:101C100071E085E593E00E94F20C809100039091C1
:101C200001030E94EE066DE771E085E593E00E94F6
:101C3000F20C80910203909103030E94220766E850
:101C400071E085E593E00E94F20C8091040390918D
:101C500005030E94EE066DE871E085E593E00E94C1
:101C6000F20C80910603909107030E94EE0668EA49
:101C700071E085E593E00E94F20C80910803909159
:101C800009030E94220766E971E085E593E00E945E
:101C900032076DE671E085E593E00E94F20C8091D9
:101CA000F2029091F3020E94EE0664E771E085E58E
:101CB00093E00E94F20C8091F4029091F5020E9450
:101CC000EE066DE771E085E593E00E94F20C8091ED
:101CD000F6029091F7020E94220766E871E085E51E
:101CE00093E00E94F20C8091F8029091F9020E9418
:101CF000EE066DE871E085E593E00E94F20C8091BC
:101D0000FA029091FB020E94EE0666EA71E085E518
:101D100093E00E94F20C8091FC029091FD020E94DF
:101D200022070CC06FEA71E085E593E00E94F20C97
:101D300068EB7BE080E090E00E94AB020E94E5024D
:101D4000672B682B692B41F40E94E5026230710514
:101D50008105910508F40EC10E94E502C090EE02D3
:101D6000D090EF02E090F002F090F1026C157D054A
:101D70008E059F0540F46093EE027093EF0280930E
:101D8000F0029093F102C090EE02D090EF02E0904A
:101D9000F002F090F1029B01AC012C193D094E09B3
:101DA0005F0969017A013AEFC316D104E104F10435
:101DB00008F4E0C06093EE027093EF028093F002AB
:101DC0009093F10284EF91E0A0E0B0E080930004F2
:101DD00090930104A0930204B093030410920404AE
:101DE0001092050410920604109207048091F803E3
:101DF0009091F903A091FA03B091FB038093FC0347
:101E00009093FD03A093FE03B093FF030E94E502AD
:101E10006093F8037093F9038093FA039093FB03A4
:101E20000E94E5026093F4037093F5038093F60338
:101E30009093F7030E94E5026B017C0163ED71E072
:101E400080913404909135040E94F20C2AE041E024
:101E500050E060E070E080913404909135040E947D
:101E6000A5066AED71E080913404909135040E94DA
:101E7000F20C2AE0B701A601809134049091350458
:101E80000E94A5066CED71E08091340490913504B8
:101E90000E94F20C8091F8039091F903A091FA034B
:101EA000B091FB03B701A601481B590B6A0B7B0BD2
:101EB0002AE080913404909135040E94A5066CEDCF
:101EC00071E080913404909135040E94F20C4091AD
:101ED000F8035091F9036091FA037091FB0380912C
:101EE000FC039091FD03A091FE03B091FF03481BFA
:101EF000590B6A0B7B0B2AE08091340490913504D6
:101F00000E94A5066EED71E0809134049091350435
:101F10000E94F20C0E94E502AB01BC012AE0809114
:101F20003404909135040E94A50660EE71E0809122
:101F30003404909135040E9432070E94E5026B013F
:101F40007C014B015C0195E0890E911CA11CB11C28
:101F50000E94E5026C157D058E059F0508F085C180
:101F60000E94E5026093F8037093F9038093FA03EB
:101F70009093FB0308EE13E027E434E046E06BE3C4
:101F8000809146040E946504809147049091480422
:101F90009827892798279093ED028093EC028091EF
:101FA000490490914A049827892798279093EB0237
:101FB0008093EA0280914B0490914C0498278927E2
:101FC00098279093E9028093E80227E434E046E002
:101FD00063E4809146040E946504809147049091D7
:101FE00048049827892798279093E7028093E60270
:101FF0008091490490914A049827892798279093C3
:10200000E5028093E40280914B0490914C04982760
:10201000892798279093E3028093E2026091EC0273
:102020007091ED02072E000C880B990B0E94931102
:102030002DEC3CEC4CEC54E40E945A136B017C01F7
:102040006091FE027091FF02072E000C880B990B25
:102050000E9493119B01AC01C701B6010E945D145F
:102060001816DCF46091040370910503072E000C30
:10207000880B990B0E9493119B01AC01C701B6011B
:102080000E948C1187FF09C01092DE021092DF02BD
:102090001092E0021092E10208C0C092DE02D092DB
:1020A000DF02E092E002F092E102C090DE02D09006
:1020B000DF02E090E002F090E10223EC35EF4CE12A
:1020C00051E4C701B6010E945A130E943F132BED41
:1020D0003FE049E450E40E945A1320E030E044E33A
:1020E00053E40E94F2110E94621423EC35EF4CE19C
:1020F00051E40E94F2119B01AC01C701B6010E949C
:10210000D2126B017C014B015C019B01AC010E946E
:10211000B014882319F067EE71E01AC02601370168
:10212000E89477F82FEF3FEF4FE75FE7C301B20185
:102130000E94B014811111C02FEF3FEF4FE75FE70E
:10214000C301B2010E948C1118163CF46BEE71E0D1
:1021500085E593E00E9490067FC02FEF3FEF4FE7A9
:102160005FE4C701B6010E945D1418161CF46FEEFF
:1021700071E0EECF2FEF3FEF4FE75FECC701B60105
:102180000E948C1187FDF3CF20E030E0A901C70148
:10219000B6010E948C1187FF0BC06DE285E593E0CC
:1021A0000E94F60046015701B7FAB094B7F8B09410
:1021B0002AE037ED43EA5BE3C501B4010E94D31284
:1021C0004B015C010E94D3136B017C010E949111B1
:1021D0009B01AC01C501B4010E94D2124B015C010C
:1021E0002AE0B701A60185E593E00E94A5066EE20C
:1021F00085E593E00E94F60020E030E040E251E403
:10220000C501B4010E94F2114B015C010E94D3137D
:102210006B01E12CF12C2AE0B701A60185E593E0E2
:102220000E94A506C701B6010E9491119B01AC0155
:10223000C501B4010E94D21220E030E040E251E436
:102240000E94F2110E94D313AB0160E070E02AE01B
:1022500085E593E00E94A50665E371E085E593E0DE
:102260000E9490060E94650169CD86169706A80611
:10227000B90608F06DCE74CEE5E5F3E01382128264
:1022800088EE93E0A0E0B0E084839583A683B783D3
:1022900026E031E03183208325EC30E03587248748
:1022A00024EC30E03787268720EC30E0318B208B20
:1022B00021EC30E0338B228B22EC30E0358B248B09
:1022C00026EC30E0378B268B118E128E138E148EF7
:1022D000E2EFF3E0168217821086118612861386CB
:1022E0001486158616861786108A118A128A138A12
:1022F000148A158AEAE3F4E01382128284839583B8
:10230000A683B78388E191E0918380830E94E502F0
:1023100088E68093460408950E94CE1108F481E077
:102320000895E89409C097FB3EF4909580957095C8
:1023300061957F4F8F4F9F4F9923A9F0F92F96E911
:10234000BB279395F695879577956795B795F11186
:10235000F8CFFAF4BB0F11F460FF1BC06F5F7F4F23
:102360008F4F9F4F16C0882311F096E911C0772335
:1023700021F09EE8872F762F05C0662371F096E83E
:10238000862F70E060E02AF09A95660F771F881F0D
:10239000DAF7880F9695879597F90895990F0008B1
:1023A000550FAA0BE0E8FEEF16161706E807F90727
:1023B000C0F012161306E407F50798F0621B730BC2
:1023C000840B950B39F40A2661F0232B242B252B43
:1023D00021F408950A2609F4A140A6958FEF811DE6
:1023E000811D08950E9405120C9476120E946812B5
:1023F00038F00E946F1220F0952311F00C945F12B8
:102400000C94651211240C94AA120E94871270F386
:10241000959FC1F3950F50E0551F629FF001729F89
:10242000BB27F00DB11D639FAA27F00DB11DAA1F98
:10243000649F6627B00DA11D661F829F2227B00DE5
:10244000A11D621F739FB00DA11D621F839FA00D70
:10245000611D221F749F3327A00D611D231F849FC0
:10246000600D211D822F762F6A2F11249F57504017
:102470009AF0F1F088234AF0EE0FFF1FBB1F661F92
:10248000771F881F91505040A9F79E3F510580F05B
:102490000C945F120C94AA125F3FE4F3983ED4F3BD
:1024A000869577956795B795F795E7959F5FC1F7FF
:1024B000FE2B880F911D9695879597F9089597F9AA
:1024C0009F6780E870E060E008959FEF80EC0895DA
:1024D00000240A9416161706180609060895002403
:1024E0000A9412161306140605060895092E03947D
:1024F000000C11F4882352F0BB0F40F4BF2B11F4F1
:1025000060FF04C06F5F7F4F8F4F9F4F089557FD4F
:102510009058440F551F59F05F3F71F04795880F51
:1025200097FB991F61F09F3F79F0879508951216E8
:1025300013061406551FF2CF4695F1DF08C0161694
:1025400017061806991FF1CF869571056105089445
:102550000895E894BB2766277727CB0197F908955C
:10256000A1E21A2EAA1BBB1BFD010DC0AA1FBB1F97
:10257000EE1FFF1FA217B307E407F50720F0A21B09
:10258000B30BE40BF50B661F771F881F991F1A9476
:1025900069F760957095809590959B01AC01BD01A0
:1025A000CF0108955058BB27AA270E94EA120C9425
:1025B00076120E94681238F00E946F1220F039F4EF
:1025C0009F3F19F426F40C9465120EF4E095E7FB96
:1025D0000C945F12E92F0E94871258F3BA17620712
:1025E00073078407950720F079F4A6F50C94A912D7
:1025F0000EF4E0950B2EBA2FA02D0B01B90190011E
:102600000C01CA01A0011124FF27591B99F0593F61
:1026100050F4503E68F11A16F040A22F232F342FA9
:102620004427585FF3CF469537952795A795F040F7
:102630005395C9F77EF41F16BA0B620B730B840B0C
:10264000BAF09150A1F0FF0FBB1F661F771F881FC4
:10265000C2F70EC0BA0F621F731F841F48F487951C
:1026600077956795B795F7959E3F08F0B0CF93950E
:10267000880F08F09927EE0F9795879508959F93F7
:102680009F77EEE389379E0728F4E8E6F0E00E94A2
:1026900049140CC00E9402149058A2EA2AED3FE0AF
:1026A00049EC5FE30E94EA120E9476120F9007FC49
:1026B000905808950E946E130C9476120E946F1227
:1026C00058F00E94681240F029F45F3F29F00C9402
:1026D0005F1251110C94AA120C9465120E94871279
:1026E00068F39923B1F3552391F3951B550BBB2741
:1026F000AA2762177307840738F09F5F5F4F220F86
:10270000331F441FAA1FA9F335D00E2E3AF0E0E87C
:1027100032D091505040E695001CCAF72BD0FE2FC6
:1027200029D0660F771F881FBB1F2617370748075A
:10273000AB07B0E809F0BB0B802DBF01FF27935812
:102740005F4F3AF09E3F510578F00C945F120C9465
:10275000AA125F3FE4F3983ED4F386957795679588
:10276000B795F7959F5FC9F7880F911D9695879547
:1027700097F90895E1E0660F771F881FBB1F621766
:1027800073078407BA0720F0621B730B840BBA0B24
:10279000EE1F88F7E09508950E94D3136894B11155
:1027A0000C94AA1208950E948F1288F09F5798F0F7
:1027B000B92F9927B751B0F0E1F0660F771F881F46
:1027C000991F1AF0BA95C9F714C0B13091F00E9460
:1027D000A912B1E008950C94A912672F782F8827C9
:1027E000B85F39F0B93FCCF3869577956795B39587
:1027F000D9F73EF490958095709561957F4F8F4FF6
:102800009F4F0895DF93CF931F930F938B01EC019C
:10281000ECE7F0E00E9422140E9476129801AE01CB
:102820008B01EC0160E070E080E89FE30E94D2122F
:102830000E9470149801AE010F911F91CF91DF910A
:102840000C940512DF93CF931F930F93FF92EF9297
:10285000DF927B018C01689406C0DA2EEF010E94A2
:102860000512FE01E894A591259135914591559168
:10287000A6F3EF010E94EA12FE019701A801DA9483
:1028800069F7DF90EF90FF900F911F91CF91DF914B
:1028900008959F938F937F936F93FF93EF939B0183
:1028A000AC010E94F211EF91FF910E9422142F912E
:1028B0003F914F915F910C94F2110E94CE1108F458
:1028C0008FEF08959F930E94CC140F9007FCEE5F4A
:1028D0000C94F51419F416F40C9465120C94B514B8
:1028E0000E948F12B8F39923C9F3B6F39F57550B83
:1028F00087FF0E94C3140024A0E640EA900180589C
:102900005695979528F4805C660F771F881F20F0F6
:1029100026173707480730F4621B730B840B2029F6
:1029200031294A2BA69517940794202531254A274B
:1029300058F7660F771F881F20F0261737074807BC
:1029400030F4620B730B840B200D311D411DA095DB
:1029500081F7B901842F9158880F9695879508952E
:102960000E94CE11880B990B08959F3F31F0915032
:1029700020F4879577956795B795880F911D969563
:10298000879597F9089591505040660F771F881FDB
:10299000D2F708950C9465120E948F12D8F3E89430
:1029A000E0E0BB279F57F0F02AED3FE049EC06C07E
:1029B000EE0FBB0F661F771F881F28F0B23A620721
:1029C0007307840728F0B25A620B730B840BE395EC
:1029D0009A9572F7803830F49A95BB0F661F771F6F
:1029E000881FD2F790480C94B714EF93E0FF07C00C
:1029F000A2EA2AED3FE049EC5FEB0E94EA120E9456
:102A000076120F90039401FC9058E4EAF0E00C94E5
:102A10004914EE0FFF1F0590F491E02D099481E019
:0C2A200090E0F8940C941415F894FFCF8B
:102A2C00E80300000000F600C3058D004301BE0062
:102A3C009C00B000000000001E02F1014E028C0050
:102A4C00E901D501C601564D4450565F317C315FCA
:102A5C00564D4450560D0A00696E697469616C6973
:102A6C007A696E67204D50552E2E2E00446576697E
:102A7C0063652069732072656164790041636365E5
:102A8C006C3A205468726573686F6C6400586D6999
:102A9C006E3A20002020596D696E3A200020205A91
:102AAC006D696E3A2000586D61783A2000202059EB
:102ABC006D61783A20004779726F3A2054687265DC
:102ACC0073686F6C640020205A6D61783A20005056
:102ADC004C6561736520636865636B204D50552CA4
:102AEC0020636F6E6E656374696F6E204641694C2E
:102AFC00454400564D4450455F003A323A007C0044
:102B0C005F564D445045006E616E00696E66006FF5
:102B1C00766600414343454C45524F4D4554455212
:102B2C00532043414C4942524154494F4E20535536
:102B3C00434345535346554C0043616C6C69627278
:102B4C006174696E672D3E20416363656C65726FBD
:102B5C006D65746572730020204759524F204341B4
:102B6C004C4942524154494F4E20535543434553CF
:102B7C005346554C200043616C6C696272617469F8
:102B8C006E672D3E204779726F73636F70657300AB
:107E0000112484B714BE81FFF0D085E080938100F7
:107E100082E08093C00088E18093C10086E0809377
:107E2000C20080E18093C4008EE0C9D0259A86E02C
:107E300020E33CEF91E0309385002093840096BBD3
:107E4000B09BFECF1D9AA8958150A9F7CC24DD24C4
:107E500088248394B5E0AB2EA1E19A2EF3E0BF2EE7
:107E6000A2D0813461F49FD0082FAFD0023811F036
:107E7000013811F484E001C083E08DD089C08234E0
:107E800011F484E103C0853419F485E0A6D080C0E4
:107E9000853579F488D0E82EFF2485D0082F10E0AE
:107EA000102F00270E291F29000F111F8ED06801E7
:107EB0006FC0863521F484E090D080E0DECF843638
:107EC00009F040C070D06FD0082F6DD080E0C81688
:107ED00080E7D80618F4F601B7BEE895C0E0D1E017
:107EE00062D089930C17E1F7F0E0CF16F0E7DF06D8
:107EF00018F0F601B7BEE89568D007B600FCFDCFD4
:107F0000A601A0E0B1E02C9130E011968C91119780
:107F100090E0982F8827822B932B1296FA010C0160
:107F200087BEE89511244E5F5F4FF1E0A038BF0790
:107F300051F7F601A7BEE89507B600FCFDCF97BE46
:107F4000E89526C08437B1F42ED02DD0F82E2BD052
:107F50003CD0F601EF2C8F010F5F1F4F84911BD097
:107F6000EA94F801C1F70894C11CD11CFA94CF0C13
:107F7000D11C0EC0853739F428D08EE10CD085E9AC
:107F80000AD08FE07ACF813511F488E018D01DD067
:107F900080E101D065CF982F8091C00085FFFCCF94
:107FA0009093C60008958091C00087FFFCCF809118
:107FB000C00084FD01C0A8958091C6000895E0E648
:107FC000F0E098E1908380830895EDDF803219F02E
:107FD00088E0F5DFFFCF84E1DECF1F93182FE3DFCA
:107FE0001150E9F7F2DF1F91089580E0E8DFEE27F6
:047FF000FF270994CA
:027FFE00040479
:0400000300007E007B
:00000001FF