:100000000C9435000C945D000C945D000C945D0024
:100010000C945D000C945D000C945D000C945D00EC
:100020000C945D000C945D000C945D000C945D00DC
:100030000C945D000C945D000C945D000C945D00CC
:100040000C94C4020C945D000C944C020C94260297
:100050000C945D000C945D000C945D000C945D00AC
:100060000C940E030C945D00E21111241FBECFEF1F
:10007000D8E0DEBFCDBF24E0ACEAB2E001C01D9203
:10008000A939B207E1F712E0A0E0B1E0E8E4F9E253
:1000900002C005900D92AC3AB107D9F710E0C5E364
:1000A000D0E004C02197FE010E949714C433D10709
:1000B000C9F70E94A10D0C94A2140C94000008959D
:1000C000FC01538D448D252F30E0842F90E0821B5E
:1000D000930B541710F0CF96089501970895FC01E3
:1000E000918D828D981761F0828DDF01A80FB11D6F
:1000F0005D968C91928D9F5F9F73928F90E0089593
:100100008FEF9FEF0895FC01918D828D981731F04C
:10011000828DE80FF11D858D90E008958FEF9FEFA0
:100120000895FC01918D228D892F90E0805C9F4F76
:10013000821B91098F739927089589E993E00E94A2
:10014000910021E0892B09F420E0822F0895FC0121
:10015000848DDF01A80FB11DA35ABF4F2C91848D50
:1001600090E001968F739927848FA689B7892C9385
:10017000A089B1898C91837080648C93938D848DD8
:10018000981306C00288F389E02D80818F7D8083DB
:100190000895EF92FF920F931F93CF93DF93EC019B
:1001A00081E0888F9B8D8C8D981305C0E889F98933
:1001B000808185FD26C0F62E0B8D10E00F5F1F4F4E
:1001C0000F731127E02E8C8DE8120CC00FB607FCC0
:1001D000FACFE889F989808185FFF5CFCE010E94A9
:1001E000A700F1CF8B8DFE01E80FF11DE35AFF4F01
:1001F000F0829FB7F8940B8FEA89FB898081806237
:100200000AC09FB7F894EE89FF896083E889F9896D
:1002100080818370806480839FBF81E090E0DF9164
:10022000CF911F910F91FF90EF900895CF93DF939F
:10023000EC01888D8823C9F0EA89FB89808185FDDE
:1002400005C0A889B9898C9186FD0FC00FB607FC3F
:10025000F5CF808185FFF2CFA889B9898C9185FF80
:10026000EDCFCE010E94A700E7CFDF91CF91089597
:1002700080E090E0892B29F00E949D0081110C9470
:10028000000008953FB7F8948091160390911703EA
:10029000A0911803B091190326B5A89B05C02F3F64
:1002A00019F00196A11DB11D3FBFBA2FA92F982F9C
:1002B0008827820F911DA11DB11DBC01CD0142E017
:1002C000660F771F881F991F4A95D1F7089585ED0E
:1002D0008093BC008091BC0084FDFCCF109274031D
:1002E00008954091EE02262F30E0240F311D213277
:1002F0003105DCF4209174032430C9F4FC0180E062
:1003000090E0861758F43091EE022191DC01A2535F
:10031000BD4FA30FB11D2C930196F3CF8091EE0238
:10032000680F6093EE0280E0089581E0089582E016
:100330000895E091CD028091CC02E81730F4F0E00E
:10034000E455FD4F808190E008958FEF9FEF089571
:100350009091CD028091CC02981750F4E92FF0E0F3
:10036000E455FD4F208130E09F5F9093CD0202C0A5
:100370002FEF3FEFC90108958091CC0290E02091CA
:10038000CD02821B91090895CF92DF92EF92FF92E6
:100390000F931F93CF93DF937C01CB018A012091B0
:1003A0007503222389F0EB016B01C40ED51ECC1519
:1003B000DD0569F06991D701ED91FC910190F08123
:1003C000E02DC7010995F3CF642F0E947101C80188
:1003D000DF91CF911F910F91FF90EF90DF90CF9021
:1003E0000895CF93DF931F92CDB7DEB76983209135
:1003F00075032223D1F020919803203240F021E0B0
:1004000030E0FC013383228380E090E015C08091CE
:100410007603E82FF0E0E958FC4F998190838F5FD5
:10042000809376038093980305C061E0CE01019626
:100430000E94710181E090E00F90DF91CF910895CB
:10044000089580E090E008950E949D141F920F92FD
:100450000FB60F9211242F933F934F935F936F9397
:100460007F938F939F93AF93BF93EF93FF9389E90C
:1004700093E00E94A700FF91EF91BF91AF919F91F0
:100480008F917F916F915F914F913F912F910F903D
:100490000FBE0F901F9018951F920F920FB60F92DC
:1004A00011242F938F939F93EF93FF93E091A903D0
:1004B000F091AA038081E091AF03F091B00382FD37
:1004C00012C090818091B2038F5F8F732091B3032C
:1004D000821751F0E091B203F0E0E756FC4F958FA0
:1004E0008093B20301C08081FF91EF919F918F9122
:1004F0002F910F900FBE0F901F9018958F929F9283
:10050000AF92BF92CF92DF92EF92FF926B017C018C
:100510000E9442014B015C01C114D104E104F104C9
:10052000F1F00E944201DC01CB0188199909AA0966
:10053000BB09883E9340A105B10570F321E0C21AC2
:10054000D108E108F10888EE880E83E0981EA11C0E
:10055000B11CC114D104E104F10419F7DDCFFF90FF
:10056000EF90DF90CF90BF90AF909F908F900895C5
:100570002FB7F894609112037091130380911403C4
:10058000909115032FBF08951F920F920FB60F92EF
:1005900011242F933F938F939F93AF93BF93809199
:1005A000120390911303A0911403B091150330919D
:1005B000110323E0230F2D3720F40196A11DB11D57
:1005C00005C026E8230F0296A11DB11D209311033B
:1005D0008093120390931303A0931403B093150315
:1005E0008091160390911703A0911803B0911903FD
:1005F0000196A11DB11D8093160390931703A0933C
:100600001803B0931903BF91AF919F918F913F91C0
:100610002F910F900FBE0F901F9018951F920F9261
:100620000FB60F9211242F933F934F935F936F93C5
:100630007F938F939F93AF93BF93EF93FF9380919B
:10064000B900887F803609F49CC068F5883209F4C7
:100650005BC090F4803109F454C038F4882309F465
:10066000F2C0883009F44DC0F2C0883109F44CC0A2
:10067000803209F45DC0EBC0803409F468C048F4EE
:10068000803309F455C0883309F0E1C080937203C8
:10069000D4C0803509F44FC0883509F45DC0883472
:1006A00009F0D5C0D2C0883909F4C3C0A8F488378E
:1006B00009F467C038F4883609F463C0803709F458
:1006C00060C0C5C0883809F4B4C0803909F45FC07F
:1006D000803809F0BCC05BC0803B09F484C038F4AA
:1006E000803A09F466C0883A09F47DC0B0C0803C05
:1006F00009F4A3C0883C09F4A0C0883B09F486C073
:10070000A6C080914F0310C0909171038091700337
:10071000981770F5E091710381E08E0F809371035B
:10072000F0E0E05BFC4F80818093BB0085EC82C0F1
:10073000809372038AC0E091710381E08E0F8093F1
:1007400071038091BB00F0E0E05BFC4F80839091EF
:100750007103809170036AC0E091710381E08E0F94
:10076000809371038091BB00F0E0E05BFC4F8083DD
:1007700080917303811169C081E080934E0384EA04
:100780005DC083E08093740310921003CFCF8091FB
:100790001003803208F04DC0E091100381E08E0F0D
:1007A000809310038091BB00F0E0E051FD4F808307
:1007B000BDCF85EC8093BC00109274038091100330
:1007C000803230F4E0911003F0E0E051FD4F1082F0
:1007D0006091100370E080EF92E0E0E0F0E00995B6
:1007E0001092100334C084E0809374031092EF02DF
:1007F0001092EE02E0E0F0E009958091EE028111A6
:1008000005C081E08093EE021092CE02E091EF02EB
:1008100081E08E0F8093EF02F0E0E253FD4F808184
:100820008093BB009091EF028091EE02981708F43C
:100830007DCF85E88093BC000AC085EC8093BC0026
:100840001092740304C0109272030E946701FF911A
:10085000EF91BF91AF919F918F917F916F915F9138
:100860004F913F912F910F900FBE0F901F901895B1
:100870002F923F924F925F926F927F928F929F92B0
:10088000AF92BF92CF92DF92EF92FF920F931F939E
:10089000CF93DF93CDB7DEB728970FB6F894DEBFBE
:1008A0000FBECDBFC82E962E4887190178010E9431
:1008B000B8022B013C018C2C880CD12C10E001E0FB
:1008C0002885A22EB12CC701A0E0B0E08B839C83C9
:1008D000AD83BE839885D91608F089C0009375034F
:1008E000C09297031092760310929803692D8EE7B9
:1008F00094E00E94F10181E00E94E80500937503F5
:10090000C09297031092760310929803809174031B
:100910008111FCCFC5018D1991098132910514F027
:1009200080E290E08F83813210F0A0E2AF830093E9
:10093000740300937303BFEFB093720310927103BB
:100940008F8181508093700300934F0380914F03F8
:10095000882980934F0380914E03813071F4109267
:100960004E0380914F038093BB008091BC0083FDB8
:10097000F8CFE5ECE093BC0003C0F5EEF093BC00CB
:10098000809174038130E1F3809171032F8182178C
:1009900018F4309171033F83E0E5F3E0ACEAB2E094
:1009A00080E04F81841721F091919D938F5FF9CF63
:1009B0001092CD024093CC028091CD025F815817F6
:1009C00009F444C0E114F10489F10E94B802DC0189
:1009D000CB0184199509A609B7092B813C814D816A
:1009E0005E8182179307A407B50700F12FC0E114B9
:1009F000F10491F10E94B802DC01CB018419950940
:100A0000A609B7096701E12CF12C8C159D05AE05EF
:100A1000BF0510F14885242F30E0812F012E000CF6
:100A2000990B82179307C4F41FEF16C0C101810F01
:100A3000911D17FD9A959A8389838EE794E00E9411
:100A4000A801A981BA818C931F5FB6CF88858132B6
:100A500008F080E2D80E3ECF812F28960FB6F8948A
:100A6000DEBF0FBECDBFDF91CF911F910F91FF90E1
:100A7000EF90DF90CF90BF90AF909F908F907F903E
:100A80006F905F904F903F902F900895BF92CF92BC
:100A9000DF92EF92FF920F931F93CF93DF9300D0DB
:100AA000CDB7DEB7F82EE62EC42EB22ED02E08EE2D
:100AB00013E09E012E5F3F4F41E00E9438048823DF
:100AC00041F14C2D50E04B1951094F5F5F4F81E0D0
:100AD00090E002C0880F991FBA94E2F70197042EA4
:100AE00001C0880F0A94EAF72D2D01C0220F4A9504
:100AF000EAF7382F30959A8193238223892B8A83B2
:100B00008983AE014F5F5F4F6E2D8F2D0E9444068B
:100B100001C080E00F900F90DF91CF911F910F9156
:100B2000FF90EF90DF90CF90BF900895CF92DF922B
:100B3000EF92FF920F931F93CF93DF936C017A0193
:100B40008B01C0E0D0E0CE15DF0581F0D8016D91BA
:100B50008D01D601ED91FC910190F081E02DC6014F
:100B60000995892B11F02196EECF7E01C701DF9107
:100B7000CF911F910F91FF90EF90DF90CF9008954C
:100B8000E9E9F3E0A089B18982E08C93A485B58579
:100B90001C92A685B7858FEC8C93108EA489B5899D
:100BA00086E08C93A289B3898C9180618C93A28911
:100BB000B3898C9188608C93A289B3898C91806869
:100BC0008C930288F389E02D80818F7D8083089546
:100BD000282F30919803313208F04AC08091740375
:100BE0008111FCCF9091970342E0409374032093CE
:100BF00073032FEF209372031092710330937003ED
:100C0000E7E7F3E0A0E5B3E020E0321721F04191FF
:100C10004D932F5FFACF10924F0320914F03990FFE
:100C2000922B90934F0390914E03913061F4109268
:100C30004E0390914F039093BB009091BC0093FDA5
:100C4000F8CF95EC01C095EE9093BC0090917403A1
:100C50009230E1F3909172039F3F79F0809172039B
:100C6000803241F080917203803331F084E005C01E
:100C700081E003C082E001C083E01092760310920D
:100C80009803109275030895CF93DF93EA0191E0E2
:100C900090937503809397031092760310929803B4
:100CA0008EE794E00E94F10168818EE794E00E9453
:100CB000F10181E00E94E80591E0811190E0892F27
:100CC000DF91CF9108956115710579F0FB010190D5
:100CD0000020E9F73197AF01461B570BDC01ED917E
:100CE000FC910280F381E02D099480E090E008956A
:100CF0008F929F92AF92BF92EF92FF920F931F93AA
:100D0000CF93DF93CDB7DEB7A1970FB6F894DEBFD0
:100D10000FBECDBF7C01FA01CB0119A2223008F42D
:100D20002AE08E010F5D1F4F822E912CA12CB12C39
:100D3000BF01A50194010E945613F901CA01015097
:100D400011096A3014F4605D01C0695CD8016C93CC
:100D5000232B242B252B61F7B801C7010E946306C2
:100D6000A1960FB6F894DEBF0FBECDBFDF91CF9135
:100D70001F910F91FF90EF90BF90AF909F908F9039
:100D80000895CF92DF92EF92FF92CF93DF936C01A1
:100D9000990FEE08FF08F7FE1BC06DE289E993E0AA
:100DA0000E94C900EC0144275527BA014C195D097E
:100DB0006E097F092AE089E993E00E9478068C0F8A
:100DC0009D1FDF91CF91FF90EF90DF90CF9008951E
:100DD0002AE0B701A60189E993E0DF91CF91FF9066
:100DE000EF90DF90CF900C947806CF93DF930E9422
:100DF000C106EC0165E371E089E993E00E946306B6
:100E00008C0F9D1FDF91CF9108958F929F92AF928B
:100E1000BF92CF92DF92EF92FF920F931F93CF93E7
:100E2000DF936B017C01142F9B01AC010E94921493
:100E3000882319F06AEE71E027C046015701E89453
:100E4000B7F82FEF3FEF4FE75FE7C501B4010E940E
:100E5000921481110DC02FEF3FEF4FE75FE7C501FF
:100E6000B4010E94321218161CF46EEE71E00CC030
:100E70002FEF3FEF4FE75FE4C701B6010E948D14EB
:100E8000181694F462EF71E089E993E0DF91CF9155
:100E90001F910F91FF90EF90DF90CF90BF90AF9098
:100EA0009F908F900C9463062FEF3FEF4FE75FEC1E
:100EB000C701B6010E94321287FDE4CF20E030E086
:100EC000A901C701B6010E94321287FF0BC06DE273
:100ED00089E993E00E94C900EC01F7FAF094F7F871
:100EE000F09402C0C0E0D0E000E060E070E080E09C
:100EF0009FE3101741F020E030E040E251E40E940F
:100F0000E5130F5FF6CFA70196010E9479136B01DD
:100F10007C010E945E144B015C012AE0AB01BC0124
:100F200089E993E00E947806C80FD91F1123C9F1FF
:100F3000C501B4010E9437129B01AC01C701B60183
:100F40000E9478136B017C016EE289E993E00E94B4
:100F5000C900C80FD91F20E030E040E251E4C701CA
:100F6000B6010E9498124B015C010E945E146B0155
:100F7000E12CF12C2AE0B701A60189E993E00E9457
:100F80007806C80FD91FC701B6010E9437129B010E
:100F9000AC01C501B4010E9478136B017C011150B2
:100FA000D1F6CE01DF91CF911F910F91FF90EF907D
:100FB000DF90CF90BF90AF909F908F9008950F9348
:100FC0001F93CF93DF93EC010E9463068C0165E3CE
:100FD00071E0CE010E946306800F911FDF91CF91D7
:100FE0001F910F9108952F923F924F925F926F92AF
:100FF0007F928F929F92AF92BF92CF92DF92EF92A9
:10100000FF920F931F93CF93DF93CDB7DEB7C65CEC
:10101000D4400FB6F894DEBF0FBECDBFCF5DDC4F1E
:101020008881C152D340CD54DB4F8883C35BD44009
:10103000CE5DDC4FC880C252D340CD5DDC4FD8803E
:10104000C352D340CC5DDC4FE880C452D340CF566E
:10105000DE4F9881C159D140CC54DB4F9883C45B9B
:10106000D440CE56DE4FF880C259D140CD56DE4F27
:101070008881C359D140CB54DB4F8883C55BD440B2
:10108000CC56DE4F9881C459D140CA54DB4F988367
:10109000C65BD4408981C954DB4F8883C75BD44089
:1010A0009A81C854DB4F9883C85BD4408B81C75466
:1010B000DB4F8883C95BD4409C81C654DB4F988347
:1010C000CA5BD440C954DB4F8881C75BD440CD5341
:1010D000DB4F8883C35CD440C854DB4F9881C85B26
:1010E000D440CC53DB4F9883C45CD440C754DB4F0F
:1010F0008881C95BD440CB53DB4F8883C55CD44027
:10110000C654DB4F9881CA5BD440CA53DB4F9883E7
:10111000C65CD440CC54DB4F8881C45BD440C154FE
:10112000DB4F8883CF5BD440C054DB4FF882C05C78
:10113000D440CB54DB4F9881C55BD440CF53DB4FB9
:101140009883C15CD440CA54DB4F8881C65BD440CD
:10115000CE53DB4F8883C25CD440CD54DB4F9881A3
:10116000C35BD440C554DB4F9883CB5BD440C4549D
:10117000DB4FC882CC5BD440C354DB4FD882CD5BFD
:10118000D440C254DB4FE882CE5BD440CF54DB4F17
:1011900019821882C15BD44008EE13E02BE834E0DA
:1011A00042E06BE380918A040E94380460918B04D2
:1011B00070918C04762767277627072E000C880B02
:1011C000990B0E9439122DEC3CEC4CEC54E40E943B
:1011D000E5132B013C012BE834E042E06DE3809104
:1011E0008A040E94380460918B0470918C047627E5
:1011F00067277627072E000C880B990B0E9439125F
:101200002DEC3CEC4CEC54E40E94E5134B015C01EA
:101210002BE834E042E06FE380918A040E943804B6
:1012200060918B0470918C04762767277627072EB0
:10123000000C880B990B0E9439122DEC3CEC4CEC05
:1012400054E40E94E5131B018C0164E670E080E029
:1012500090E00E947E02CF54DB4F88819981C15B70
:10126000D4408336910539F466EF71E089E993E063
:101270000E94DF07FAC06AE372E089E993E00E9406
:10128000DF07CD54DB4F2881C35BD4403C2D4D2D6F
:101290005E2DB201C3010E948D14181644F4CD5482
:1012A000DB4F4882C35BD440C52CD62CE72CCC54F2
:1012B000DB4F2881C45BD4403F2DCB54DB4F4881AA
:1012C000C55BD440CA54DB4F5881C65BD440B401DF
:1012D000C5010E948D14181684F4CC54DB4F88820B
:1012E000C45BD440F92CCB54DB4FA882C55BD440FF
:1012F000CA54DB4FB882C65BD440C954DB4F288147
:10130000C75BD440C854DB4F3881C85BD440C75456
:10131000DB4F4881C95BD440C654DB4F5881CA5B60
:10132000D440B101C8010E948D141816A4F4C95408
:10133000DB4F2882C75BD440C854DB4F3882C85B80
:10134000D440C754DB4F0883C95BD440C654DB4F3D
:101350001883CA5BD440C554DB4F2881CB5BD44093
:10136000C454DB4F3881CC5BD440C354DB4F48813D
:10137000CD5BD440C254DB4F5881CE5BD440B20128
:10138000C3010E94321287FF14C0C554DB4F48824C
:10139000CB5BD440C454DB4F5882CC5BD440C354A5
:1013A000DB4F6882CD5BD440C254DB4F7882CE5B8A
:1013B000D440C154DB4F2881CF5BD440C054DB4FB5
:1013C0003881C05CD440CF53DB4F4881C15CD440EE
:1013D000CE53DB4F5881C25CD440B401C5010E949A
:1013E000321287FF14C0C154DB4F8882CF5BD440D8
:1013F000C054DB4F9882C05CD440CF53DB4FA882EF
:10140000C15CD440CE53DB4FB882C25CD440CD53D4
:10141000DB4F2881C35CD440CC53DB4F3881C45CA4
:10142000D440CB53DB4F4881C55CD440CA53DB4F1B
:101430005881C65CD440B101C8010E948D141816B1
:10144000A4F4CD53DB4F2882C35CD440CC53DB4F94
:101450003882C45CD440CB53DB4F0883C55CD44096
:10146000CA53DB4F1883C65CD440CF54DB4F88810E
:101470009981C15BD4400196CF54DB4F9983888317
:10148000C15BD4408436910509F086CECD54DB4F44
:101490006881C35BD4407C2D8D2D9E2D0E945714F6
:1014A0007093490360934803CC54DB4F6881C45B5D
:1014B000D4407F2DCB54DB4F8881C55BD440CA54C8
:1014C000DB4F9881C65BD4400E94571470934B0346
:1014D00060934A03C954DB4F6881C75BD440C8544A
:1014E000DB4F7881C85BD440C754DB4F8881C95B30
:1014F000D440C654DB4F9881CA5BD4400E94571435
:1015000070934D0360934C03C554DB4F6881CB5BF4
:10151000D440C454DB4F7881CC5BD440C354DB4F00
:101520008881CD5BD440C254DB4F9881CE5BD440E0
:101530000E9457147093430360934203C154DB4FDE
:101540006881CF5BD440C054DB4F7881C05CD4400D
:10155000CF53DB4F8881C15CD440CE53DB4F9881A1
:10156000C25CD4400E9457147093450360934403B7
:10157000CD53DB4F6881C35CD440CC53DB4F7881C3
:10158000C45CD440CB53DB4F8881C55CD440CA5384
:10159000DB4F9881C65CD4400E9457147093470378
:1015A00060934603CA53DB4F0FB6F894DEBF0FBEFD
:1015B000CDBFDF91CF911F910F91FF90EF90DF9002
:1015C000CF90BF90AF909F908F907F906F905F90E3
:1015D0004F903F902F9008952F923F924F925F929D
:1015E0006F927F928F929F92AF92BF92CF92DF9233
:1015F000EF92FF920F931F93CF93DF93CDB7DEB798
:10160000C65CD4400FB6F894DEBF0FBECDBFCF5D31
:10161000DC4F8881C152D340CD54DB4F8883C35BFC
:10162000D440CE5DDC4F8880C252D340CD5DDC4FCC
:101630009880C352D340CC5DDC4FA880C452D340C5
:10164000CF56DE4F9881C159D140CC54DB4F98839F
:10165000C45BD440CE56DE4FB880C259D140CD567F
:10166000DE4F2880C359D140CC56DE4F3880C45954
:10167000D14049805A806B807C80C354DB4F4882C4
:10168000CD5BD440C254DB4F5882CE5BD440C154B2
:10169000DB4F6882CF5BD440C054DB4F7882C05CA4
:1016A000D440C754DB4F9883C95BD440C654DB4F4A
:1016B000B882CA5BD440C554DB4F2882CB5BD44090
:1016C000C454DB4F3882CC5BD440CB54DB4F88838F
:1016D000C55BD440CA54DB4F8882C65BD440C95432
:1016E000DB4F9882C75BD440C854DB4FA882C85BED
:1016F000D440CF54DB4F19821882C15BD44008EE2E
:1017000013E02BE834E042E063E480918A040E9415
:10171000380460918B0470918C04762767277627B4
:10172000072E000C880B990B0E9439122DEC3CEC13
:101730004CEC54E40E94E5136B017C012BE834E08F
:1017400042E065E480918A040E94380460918B0431
:1017500070918C04762767277627072E000C880B5C
:10176000990B0E9439122DEC3CEC4CEC54E40E9495
:10177000E513CF53DB4F6883C15CD440CE53DB4FBE
:101780007883C25CD440CD53DB4F8883C35CD440A4
:10179000CC53DB4F9883C45CD4402BE834E042E068
:1017A00067E480918A040E94380460918B047091F0
:1017B0008C04762767277627072E000C880B990B59
:1017C0000E9439122DEC3CEC4CEC54E40E94E513E1
:1017D000CB53DB4F6883C55CD440CA53DB4F78835F
:1017E000C65CD4408C0164E670E080E090E00E942A
:1017F0007E02CF54DB4F88819981C15BD440833610
:10180000910539F468E572E089E993E00E94DF0709
:10181000FAC062E972E089E993E00E94DF07CD54E3
:10182000DB4F2881C35BD440382D492D5A2DB6019A
:10183000C7010E948D14181644F4CD54DB4FC882A2
:10184000C35BD4408D2C9E2CAF2CCC54DB4F288115
:10185000C45BD4403B2DA101CF53DB4F6881C15CF9
:10186000D440CE53DB4F7881C25CD440CD53DB4FA4
:101870008881C35CD440CC53DB4F9881C45CD44096
:101880000E948D141816CCF4CF53DB4F9881C15CA5
:10189000D440CC54DB4F9883C45BD440CE53DB4F51
:1018A000B880C25CD440CD53DB4F2880C35CD440A9
:1018B000CC53DB4F3880C45CD4409201A301CB539E
:1018C000DB4F6881C55CD440CA53DB4F7881C65C6E
:1018D000D440C8010E948D1418165CF4CB53DB4F22
:1018E0004880C55CD440CA53DB4F5880C65CD440A6
:1018F0003801CB54DB4F2881C55BD440CA54DB4F41
:101900003881C65BD440C954DB4F4881C75BD440A3
:10191000C854DB4F5881C85BD440B601C7010E9450
:10192000321287FF14C0CB54DB4FC882C55BD44052
:10193000CA54DB4FD882C65BD440C954DB4FE8821F
:10194000C75BD440C854DB4FF882C85BD440C7544F
:10195000DB4F2881C95BD440C654DB4F3881CA5B5A
:10196000D440C554DB4F4881CB5BD440C454DB4FDB
:101970005881CC5BD440B601C7010E94321287FF68
:1019800014C0C754DB4FC882C95BD440C654DB4F78
:10199000D882CA5BD440C554DB4FE882CB5BD440CD
:1019A000C454DB4FF882CC5BD440C354DB4F288156
:1019B000CD5BD440C254DB4F3881CE5BD440C154A0
:1019C000DB4F4881CF5BD440C054DB4F5881C05CB3
:1019D000D440B601C7010E948D141816A4F4C35454
:1019E000DB4FC882CD5BD440C254DB4FD882CE5B84
:1019F000D440C154DB4FE882CF5BD440C054DB4FAE
:101A0000F882C05CD440CF54DB4F88819981C15BA0
:101A1000D4400196CF54DB4F99838883C15BD44077
:101A20008436910509F06BCECD54DB4F6881C35BE2
:101A3000D440782D892D9A2D0E94571470933D0320
:101A400060933C03CC54DB4F6881C45BD4407B2D56
:101A5000C1010E94571470933F0360933E03B2018B
:101A6000C3010E9457147093410360934003CB5409
:101A7000DB4F6881C55BD440CA54DB4F7881C65BBD
:101A8000D440C954DB4F8881C75BD440C854DB4F76
:101A90009881C85BD4400E945714709337036093B9
:101AA0003603C754DB4F6881C95BD440C654DB4F53
:101AB0007881CA5BD440C554DB4F8881CB5BD4406E
:101AC000C454DB4F9881CC5BD4400E945714709370
:101AD000390360933803C354DB4F6881CD5BD44036
:101AE000C254DB4F7881CE5BD440C154DB4F888138
:101AF000CF5BD440C054DB4F9881C05CD4400E947F
:101B0000571470933B0360933A03CA53DB4F0FB6ED
:101B1000F894DEBF0FBECDBFDF91CF911F910F9123
:101B2000FF90EF90DF90CF90BF90AF909F908F90FD
:101B30007F906F905F904F903F902F9008950C94FE
:101B40006306CF93DF9300D0CDB7DEB7789484B52A
:101B5000826084BD84B5816084BD85B5826085BDA9
:101B600085B5816085BD80916E00816080936E0037
:101B70001092810080918100826080938100809129
:101B800081008160809381008091800081608093DA
:101B900080008091B10084608093B1008091B0009A
:101BA00081608093B00080917A00846080937A0095
:101BB00080917A00826080937A0080917A008160BF
:101BC00080937A0080917A00806880937A001092E6
:101BD000C10010927A0410927B0410927C0410923F
:101BE0007D04109238041092390410923A04109235
:101BF0003B040E94B8026B017C014B015C0128EBA5
:101C0000820E2BE0921EA11CB11C0E94B8026C1522
:101C10007D058E059F0528F086169706A806B9064D
:101C2000A0F789E993E090937904809378040E9467
:101C3000C0050E94B8026093380470933904809301
:101C40003A0490933B0466E271E0809178049091AD
:101C500079040E949F0D0E94B8026B017C014B0128
:101C60005C013AE0830E911CA11CB11C0E94B802D9
:101C70006C157D058E059F0528F086169706A8062B
:101C8000B906A0F781E080934C040E94C00501E0F2
:101C900023E042E06BE680918A040E94460500E062
:101CA00022E044E06BE180918A040E94460522E034
:101CB00044E06CE180918A040E944605F0908A0419
:101CC00008EE13E09E012F5F3F4F41E06BE68F2D42
:101CD0000E94380489818F7B89838A83AE014E5F9D
:101CE0005F4F6BE68F2D0E94440668E371E089E93F
:101CF00093E00E949F0D9E012F5F3F4F41E065E7FB
:101D000080918A040E943804882339F089818E7773
:101D100090E09595879580938B0480918B04843314
:101D200009F0ADC06CE471E089E993E00E949F0D79
:101D30006AE070E080E090E00E947E020E94F3077B
:101D40000E94EC0A6CE571E089E993E00E94DF07EC
:101D50006DE671E089E993E00E949F0D8091420356
:101D6000909143030E94C10664E771E089E993E022
:101D70000E949F0D80914403909145030E94C106EB
:101D80006DE771E089E993E00E949F0D8091460321
:101D9000909147030E94F50666E871E089E993E0B7
:101DA0000E949F0D80914803909149030E94C106B3
:101DB0006DE871E089E993E00E949F0D80914A03EC
:101DC00090914B030E94C10668EA71E089E993E0B3
:101DD0000E949F0D80914C0390914D030E94F50647
:101DE00066E971E089E993E00E94DF076DE671E042
:101DF00089E993E00E949F0D80913603909137030B
:101E00000E94C10664E771E089E993E00E949F0D9A
:101E100080913803909139030E94C1066DE771E00B
:101E200089E993E00E949F0D80913A0390913B03D2
:101E30000E94F50666E871E089E993E00E949F0D33
:101E400080913C0390913D030E94C1066DE871E0D2
:101E500089E993E00E949F0D80913E0390913F039A
:101E60000E94C10666EA71E089E993E00E949F0D35
:101E700080914003909141030E94F5060CC06FEAE7
:101E800071E089E993E00E949F0D68EB7BE080E0C0
:101E900090E00E947E020E94B802672B682B692B9B
:101EA00041F40E94B802623071058105910508F481
:101EB0000EC10E94B802C0903203D0903303E0906C
:101EC0003403F09035036C157D058E059F0540F4B5
:101ED00060933203709333038093340390933503FC
:101EE000C0903203D0903303E0903403F090350378
:101EF0009B01AC012C193D094E095F0969017A016A
:101F00003AEFC316D104E104F10408F4E0C0609391
:101F1000320370933303809334039093350384EF3B
:101F200091E0A0E0B0E08093440490934504A09336
:101F30004604B0934704109248041092490410924A
:101F40004A0410924B0480913C0490913D04A0916E
:101F50003E04B0913F048093400490934104A093C9
:101F60004204B09343040E94B80260933C0470930F
:101F70003D0480933E0490933F040E94B802609316
:101F800038047093390480933A0490933B040E9480
:101F9000B8026B017C0163ED71E08091780490914F
:101FA00079040E949F0D2AE041E050E060E070E07B
:101FB00080917804909179040E9478066AED71E02E
:101FC00080917804909179040E949F0D2AE0B701D6
:101FD000A60180917804909179040E9478066CEDB6
:101FE00071E080917804909179040E949F0D809116
:101FF0003C0490913D04A0913E04B0913F04B70190
:10200000A601481B590B6A0B7B0B2AE080917804D0
:10201000909179040E9478066CED71E080917804CB
:10202000909179040E949F0D40913C0450913D0491
:1020300060913E0470913F0480914004909141046E
:10204000A0914204B0914304481B590B6A0B7B0BCF
:102050002AE080917804909179040E9478066EEDD0
:1020600071E080917804909179040E949F0D0E9404
:10207000B802AB01BC012AE0809178049091790408
:102080000E94780660EE71E0809178049091790466
:102090000E94DF070E94B8026B017C014B015C01CA
:1020A00095E0890E911CA11CB11C0E94B8026C1510
:1020B0007D058E059F0508F07EC10E94B8026093E1
:1020C0003C0470933D0480933E0490933F0408EEDB
:1020D00013E02BE834E046E06BE380918A040E9431
:1020E000380480918B0490918C0498278927982735
:1020F000909331038093300380918D0490918E04EE
:1021000098278927982790932F0380932E038091F7
:102110008F049091900498278927982790932D03F6
:1021200080932C032BE834E046E063E480918A043A
:102130000E94380480918B0490918C049827892701
:10214000982790932B0380932A0380918D0490917C
:102150008E04982789279827909329038093280332
:1021600080918F04909190049827892798279093C5
:102170002703809326036091300370913103072E6B
:10218000000C880B990B0E9439122DEC3CEC4CECA6
:1021900054E40E94E5132B013C0160912E037091E1
:1021A0002F03072E000C880B990B0E9439122DEC7F
:1021B0003CEC4CEC54E40E94E5134B015C01609153
:1021C0002C0370912D03072E000C880B990B0E9495
:1021D00039122DEC3CEC4CEC54E40E94E5136B01FD
:1021E0007C016091420370914303072E000C880B21
:1021F000990B0E9439129B01AC01C301B2010E94EC
:102200008D141816DCF46091480370914903072E71
:10221000000C880B990B0E9439129B01AC01C30181
:10222000B2010E94321287FF09C01092220310925D
:102230002303109224031092250308C04092220326
:1022400050922303609224037092250360914A0305
:1022500070914B03072E000C880B990B0E943912CA
:102260009B01AC01C501B4010E94321287FF1BC063
:102270006091440370914503072E000C880B990B65
:102280000E9439129B01AC01C501B4010E948D145A
:1022900018164CF410921E0310921F031092200384
:1022A0001092210308C080921E0390921F03A092F7
:1022B0002003B092210360914C0370914D03072ECF
:1022C000000C880B990B0E9439129B01AC01C701CD
:1022D000B6010E94321287FF1BC0609146037091C5
:1022E0004703072E000C880B990B0E9439129B01A3
:1022F000AC01C701B6010E948D1418164CF410925F
:102300001A0310921B0310921C0310921D031DC090
:10231000A701960163EC75EF8CE191E40E947813BC
:102320006B017C0120E030E0A9010E948D14181699
:1023300024F0F7FAF094F7F8F094C0921A03D092D0
:102340001B03E0921C03F0921D0360912203709125
:102350002303809124039091250342E00E94050706
:1023600067EE71E089E993E00E949F0D60911E0382
:1023700070911F03809120039091210342E00E94FD
:10238000050768EE71E089E993E00E949F0D609176
:102390001A0370911B0380911C0390911D0342E06E
:1023A0000E94050765E371E089E993E00E946306F6
:1023B0000E94380170CD86169706A806B90608F067
:1023C00074CE7BCEE9E9F3E01382128288EE93E0CB
:1023D000A0E0B0E084839583A683B78326E031E054
:1023E0003183208325EC30E03587248724EC30E0EE
:1023F0003787268720EC30E0318B208B21EC30E0D2
:10240000338B228B22EC30E0358B248B26EC30E0B2
:10241000378B268B118E128E138E148EE6E3F4E02A
:1024200016821782108611861286138614861586E8
:1024300016861786108A118A128A138A148A158AB8
:10244000EEE7F4E01382128284839583A683B78338
:1024500088E191E0918380830E94B80288E68093AE
:102460008A0408950E94741208F481E00895E894A3
:1024700009C097FB3EF490958095709561957F4FCC
:102480008F4F9F4F9923A9F0F92F96E9BB2793957A
:10249000F695879577956795B795F111F8CFFAF48A
:1024A000BB0F11F460FF1BC06F5F7F4F8F4F9F4FBB
:1024B00016C0882311F096E911C0772321F09EE819
:1024C000872F762F05C0662371F096E8862F70E07F
:1024D00060E02AF09A95660F771F881FDAF7880F59
:1024E0009695879597F90895990F0008550FAA0BAF
:1024F000E0E8FEEF16161706E807F907C0F0121617
:102500001306E407F50798F0621B730B840B950B19
:1025100039F40A2661F0232B242B252B21F408956E
:102520000A2609F4A140A6958FEF811D811D08950B
:102530000E94AB120C941C130E940E1338F00E94E0
:10254000151320F0952311F00C9405130C940B1324
:1025500011240C9450130E942D1370F3959FC1F316
:10256000950F50E0551F629FF001729FBB27F00D41
:10257000B11D639FAA27F00DB11DAA1F649F662796
:10258000B00DA11D661F829F2227B00DA11D621FE5
:10259000739FB00DA11D621F839FA00D611D221F9F
:1025A000749F3327A00D611D231F849F600D211D83
:1025B000822F762F6A2F11249F5750409AF0F1F006
:1025C00088234AF0EE0FFF1FBB1F661F771F881F6F
:1025D00091505040A9F79E3F510580F00C9405138F
:1025E0000C9450135F3FE4F3983ED4F386957795AF
:1025F0006795B795F795E7959F5FC1F7FE2B880F15
:10260000911D9695879597F9089597F99F6780E8AA
:1026100070E060E008959FEF80EC089500240A9434
:102620001616170618060906089500240A941216AD
:102630001306140605060895092E0394000C11F4E0
:10264000882352F0BB0F40F4BF2B11F460FF04C08D
:102650006F5F7F4F8F4F9F4F089557FD9058440FE6
:10266000551F59F05F3F71F04795880F97FB991FF1
:1026700061F09F3F79F087950895121613061406AE
:10268000551FF2CF4695F1DF08C01616170618063B
:10269000991FF1CF86957105610508940895E89416
:1026A000BB2766277727CB0197F90895A1E21A2E59
:1026B000AA1BBB1BFD010DC0AA1FBB1FEE1FFF1FE6
:1026C000A217B307E407F50720F0A21BB30BE40B36
:1026D000F50B661F771F881F991F1A9469F760957D
:1026E0007095809590959B01AC01BD01CF01089537
:1026F0005058BB27AA270E9490130C941C130E94C9
:102700000E1338F00E94151320F039F49F3F19F48E
:1027100026F40C940B130EF4E095E7FB0C940513D0
:10272000E92F0E942D1358F3BA1762077307840725
:10273000950720F079F4A6F50C944F130EF4E0956C
:102740000B2EBA2FA02D0B01B90190010C01CA016B
:10275000A0011124FF27591B99F0593F50F4503E16
:1027600068F11A16F040A22F232F342F4427585F08
:10277000F3CF469537952795A795F0405395C9F720
:102780007EF41F16BA0B620B730B840BBAF09150D8
:10279000A1F0FF0FBB1F661F771F881FC2F70EC077
:1027A000BA0F621F731F841F48F48795779567954A
:1027B000B795F7959E3F08F0B0CF9395880F08F036
:1027C0009927EE0F9795879508950E94F9130C9419
:1027D0001C130E94151358F00E940E1340F029F4A8
:1027E0005F3F29F00C94051351110C9450130C9475
:1027F0000B130E942D1368F39923B1F3552391F322
:10280000951B550BBB27AA2762177307840738F05F
:102810009F5F5F4F220F331F441FAA1FA9F335D0BC
:102820000E2E3AF0E0E832D091505040E695001C70
:10283000CAF72BD0FE2F29D0660F771F881FBB1F2A
:10284000261737074807AB07B0E809F0BB0B802D08
:10285000BF01FF2793585F4F3AF09E3F510578F034
:102860000C9405130C9450135F3FE4F3983ED4F39B
:10287000869577956795B795F7959F5FC9F7880F08
:10288000911D9695879597F90895E1E0660F771F5A
:10289000881FBB1F621773078407BA0720F0621BEB
:1028A000730B840BBA0BEE1F88F7E09508950E9416
:1028B0005E146894B1110C94501308950E9435135E
:1028C00088F09F5798F0B92F9927B751B0F0E1F0F1
:1028D000660F771F881F991F1AF0BA95C9F714C0A1
:1028E000B13091F00E944F13B1E008950C944F1352
:1028F000672F782F8827B85F39F0B93FCCF38695DA
:1029000077956795B395D9F73EF490958095709536
:1029100061957F4F8F4F9F4F08950E94741208F466
:102920008FEF08950E947412880B990B0895EE0F93
:10293000FF1F0590F491E02D099481E090E0F89458
:082940000C94A214F894FFCFDF
:10294800E80300000000C900960560001601910028
:102958006F00830000000000F101C40121025F0044
:10296800BC01A8019901564D4450565F317C315F36
:10297800564D4450560D0A00696E697469616C6958
:102988007A696E67204D50552E2E2E004465766963
:1029980063652069732072656164790041636365CA
:1029A8006C3A205468726573686F6C6400586D697E
:1029B8006E3A20002020596D696E3A200020205A76
:1029C8006D696E3A2000586D61783A2000202059D0
:1029D8006D61783A20004779726F3A2054687265C1
:1029E80073686F6C640020205A6D61783A2000503B
:1029F8004C6561736520636865636B204D50552C89
:102A080020636F6E6E656374696F6E204641694C12
:102A1800454400564D4450455F003A323A007C0028
:102A28005F564D445045002020006E616E00696E6F
:102A380066006F766600232323232323232323237F
:102A48002323232320414343454C45524F4D4554AE
:102A58004552532043414C4942524154494F4E201C
:102A68005355434345535346554C2023232323238F
:102A78002323232323232323230043616C6C6962CC
:102A8800726174696E672D3E20416363656C65727F
:102A98006F6D657465727300232323232323232317
:102AA800232323232323232323204759524F20431F
:102AB800414C4942524154494F4E20535543434596
:102AC800535346554C2023232323232323232323F3
:102AD800230043616C6C6962726174696E672D3E94
:0C2AE800204779726F73636F7065730094
:00000001FF
